{"abi":[{"type":"constructor","inputs":[{"name":"_owner","type":"address","internalType":"address"},{"name":"_feePercent","type":"uint256","internalType":"uint256"},{"name":"_feeCollector","type":"address","internalType":"address"},{"name":"_usdc","type":"address","internalType":"address"}],"stateMutability":"nonpayable"},{"type":"function","name":"FEE_DENOMINATOR","inputs":[],"outputs":[{"name":"","type":"uint256","internalType":"uint256"}],"stateMutability":"view"},{"type":"function","name":"USDC","inputs":[],"outputs":[{"name":"","type":"address","internalType":"contract IUSDC"}],"stateMutability":"view"},{"type":"function","name":"createProfile","inputs":[{"name":"_key","type":"bytes","internalType":"bytes"},{"name":"_profile","type":"bytes","internalType":"bytes"}],"outputs":[],"stateMutability":"nonpayable"},{"type":"function","name":"donate","inputs":[{"name":"_donation","type":"tuple","internalType":"struct Stealth.Donation","components":[{"name":"to","type":"address","internalType":"address"},{"name":"viewTag","type":"uint16","internalType":"uint16"},{"name":"ephemeralPublicKey","type":"bytes","internalType":"bytes"},{"name":"message","type":"bytes","internalType":"bytes"}]},{"name":"_transfer","type":"tuple","internalType":"struct Stealth.TranferAuthorized","components":[{"name":"from","type":"address","internalType":"address"},{"name":"value","type":"uint256","internalType":"uint256"},{"name":"validAfter","type":"uint256","internalType":"uint256"},{"name":"validBefore","type":"uint256","internalType":"uint256"},{"name":"signature","type":"bytes","internalType":"bytes"}]}],"outputs":[],"stateMutability":"payable"},{"type":"function","name":"feeCollector","inputs":[],"outputs":[{"name":"","type":"address","internalType":"address"}],"stateMutability":"view"},{"type":"function","name":"feePercent","inputs":[],"outputs":[{"name":"","type":"uint256","internalType":"uint256"}],"stateMutability":"view"},{"type":"function","name":"hashDonation","inputs":[{"name":"_donation","type":"tuple","internalType":"struct Stealth.Donation","components":[{"name":"to","type":"address","internalType":"address"},{"name":"viewTag","type":"uint16","internalType":"uint16"},{"name":"ephemeralPublicKey","type":"bytes","internalType":"bytes"},{"name":"message","type":"bytes","internalType":"bytes"}]}],"outputs":[{"name":"","type":"bytes32","internalType":"bytes32"}],"stateMutability":"pure"},{"type":"function","name":"multipleTransferAuthorized","inputs":[{"name":"_transfers","type":"tuple[]","internalType":"struct Stealth.FullTranferAuthorized[]","components":[{"name":"from","type":"address","internalType":"address"},{"name":"to","type":"address","internalType":"address"},{"name":"value","type":"uint256","internalType":"uint256"},{"name":"validAfter","type":"uint256","internalType":"uint256"},{"name":"validBefore","type":"uint256","internalType":"uint256"},{"name":"nonce","type":"bytes32","internalType":"bytes32"},{"name":"signature","type":"bytes","internalType":"bytes"}]}],"outputs":[],"stateMutability":"nonpayable"},{"type":"function","name":"owner","inputs":[],"outputs":[{"name":"","type":"address","internalType":"address"}],"stateMutability":"view"},{"type":"function","name":"profilesOfAddress","inputs":[{"name":"","type":"address","internalType":"address"}],"outputs":[{"name":"key","type":"bytes","internalType":"bytes"},{"name":"profile","type":"bytes","internalType":"bytes"},{"name":"createdAt","type":"uint256","internalType":"uint256"}],"stateMutability":"view"},{"type":"function","name":"renounceOwnership","inputs":[],"outputs":[],"stateMutability":"nonpayable"},{"type":"function","name":"transferOwnership","inputs":[{"name":"newOwner","type":"address","internalType":"address"}],"outputs":[],"stateMutability":"nonpayable"},{"type":"function","name":"updateFeeCollector","inputs":[{"name":"_feeCollector","type":"address","internalType":"address"}],"outputs":[],"stateMutability":"nonpayable"},{"type":"function","name":"updateFeePercent","inputs":[{"name":"_feePercent","type":"uint256","internalType":"uint256"}],"outputs":[],"stateMutability":"nonpayable"},{"type":"function","name":"updateProfile","inputs":[{"name":"_profile","type":"bytes","internalType":"bytes"}],"outputs":[],"stateMutability":"nonpayable"},{"type":"event","name":"Announcement","inputs":[{"name":"stealthAddress","type":"address","indexed":true,"internalType":"address"},{"name":"viewTag","type":"uint16","indexed":true,"internalType":"uint16"},{"name":"ephemeralPublicKey","type":"bytes","indexed":false,"internalType":"bytes"},{"name":"amount","type":"uint256","indexed":false,"internalType":"uint256"},{"name":"message","type":"bytes","indexed":false,"internalType":"bytes"}],"anonymous":false},{"type":"event","name":"FeeCollectorUpdated","inputs":[{"name":"newFeeCollector","type":"address","indexed":false,"internalType":"address"}],"anonymous":false},{"type":"event","name":"FeePercentUpdated","inputs":[{"name":"newFeePercent","type":"uint256","indexed":false,"internalType":"uint256"}],"anonymous":false},{"type":"event","name":"OwnershipTransferred","inputs":[{"name":"previousOwner","type":"address","indexed":true,"internalType":"address"},{"name":"newOwner","type":"address","indexed":true,"internalType":"address"}],"anonymous":false},{"type":"event","name":"ProfileUpdated","inputs":[{"name":"user","type":"address","indexed":true,"internalType":"address"}],"anonymous":false},{"type":"error","name":"OwnableInvalidOwner","inputs":[{"name":"owner","type":"address","internalType":"address"}]},{"type":"error","name":"OwnableUnauthorizedAccount","inputs":[{"name":"account","type":"address","internalType":"address"}]}],"bytecode":{"object":"0x60a060405234801561000f575f5ffd5b5060405161192338038061192383398101604081905261002e916100fc565b836001600160a01b03811661005c57604051631e4fbdf760e01b81525f600482015260240160405180910390fd5b61006581610092565b50600192909255600280546001600160a01b0319166001600160a01b039283161790551660805250610146565b5f80546001600160a01b038381166001600160a01b0319831681178455604051919092169283917f8be0079c531659141344cd1fd0a4f28419497f9722a3daafe3b4186f6b6457e09190a35050565b80516001600160a01b03811681146100f7575f5ffd5b919050565b5f5f5f5f6080858703121561010f575f5ffd5b610118856100e1565b93506020850151925061012d604086016100e1565b915061013b606086016100e1565b905092959194509250565b6080516117a961017a5f395f8181610156015281816104a401528181610591015281816106170152610aa901526117a95ff3fe6080604052600436106100e4575f3560e01c8063a760803811610087578063d73792a911610057578063d73792a914610290578063dd1c9d4c146102a5578063f05c5fed146102c4578063f2fde38b146102e3575f5ffd5b8063a7608038146101f8578063b7cb3e4514610217578063c415b95c14610245578063d2c35ce814610271575f5ffd5b806389a30271116100c257806389a30271146101455780638da5cb5b1461019d57806394575c86146101c6578063a4353403146101d9575f5ffd5b80633354c373146100e8578063715018a6146101095780637fd6f15c1461011d575b5f5ffd5b3480156100f3575f5ffd5b50610107610102366004610d85565b610302565b005b348015610114575f5ffd5b5061010761034d565b348015610128575f5ffd5b5061013260015481565b6040519081526020015b60405180910390f35b348015610150575f5ffd5b506101787f000000000000000000000000000000000000000000000000000000000000000081565b60405173ffffffffffffffffffffffffffffffffffffffff909116815260200161013c565b3480156101a8575f5ffd5b505f5473ffffffffffffffffffffffffffffffffffffffff16610178565b6101076101d4366004610dc4565b610360565b3480156101e4575f5ffd5b506101326101f3366004610ff4565b610781565b348015610203575f5ffd5b5061010761021236600461102e565b6107c5565b348015610222575f5ffd5b5061023661023136600461109a565b6108b2565b60405161013c93929190611106565b348015610250575f5ffd5b506002546101789073ffffffffffffffffffffffffffffffffffffffff1681565b34801561027c575f5ffd5b5061010761028b36600461109a565b6109df565b34801561029b575f5ffd5b5061013261271081565b3480156102b0575f5ffd5b506101076102bf36600461113b565b610a61565b3480156102cf575f5ffd5b506101076102de3660046111ac565b610b6e565b3480156102ee575f5ffd5b506101076102fd36600461109a565b610c17565b335f90815260036020526040902060010161031e82848361125f565b5060405133907fbe4ec58a792f909e102ee3d745d0c3b34a4d437a54d903c4db098d31c556422f905f90a25050565b610355610c7a565b61035e5f610ccc565b565b5f61036d6101f384611375565b9050602080830135905f906103849086018661109a565b73ffffffffffffffffffffffffffffffffffffffff1603610406576040517f08c379a000000000000000000000000000000000000000000000000000000000815260206004820152600a60248201527f496e76616c696420746f0000000000000000000000000000000000000000000060448201526064015b60405180910390fd5b5f811161046f576040517f08c379a000000000000000000000000000000000000000000000000000000000815260206004820152600e60248201527f496e76616c696420616d6f756e7400000000000000000000000000000000000060448201526064016103fd565b5f6127106001548361048191906113b3565b61048b91906113ca565b905073ffffffffffffffffffffffffffffffffffffffff7f0000000000000000000000000000000000000000000000000000000000000000166388b7ab636104d6602087018761109a565b306020880135604089013560608a0135896104f460808d018d611402565b6040518963ffffffff1660e01b81526004016105179897969594939291906114aa565b5f604051808303815f87803b15801561052e575f5ffd5b505af1158015610540573d5f5f3e3d5ffd5b50506002546040517fa9059cbb00000000000000000000000000000000000000000000000000000000815273ffffffffffffffffffffffffffffffffffffffff9182166004820152602481018590527f0000000000000000000000000000000000000000000000000000000000000000909116925063a9059cbb91506044016020604051808303815f875af11580156105db573d5f5f3e3d5ffd5b505050506040513d601f19601f820116820180604052508101906105ff919061151b565b5073ffffffffffffffffffffffffffffffffffffffff7f00000000000000000000000000000000000000000000000000000000000000001663a9059cbb610649602088018861109a565b610653848661153a565b6040517fffffffff0000000000000000000000000000000000000000000000000000000060e085901b16815273ffffffffffffffffffffffffffffffffffffffff909216600483015260248201526044016020604051808303815f875af11580156106c0573d5f5f3e3d5ffd5b505050506040513d601f19601f820116820180604052508101906106e4919061151b565b506106f5604086016020870161154d565b61ffff16610706602087018761109a565b73ffffffffffffffffffffffffffffffffffffffff167f14c6b30f95da52d86952583e78f232086f8d99719b7e278036989f925152051161074a6040890189611402565b610754868861153a565b61076160608c018c611402565b604051610772959493929190611566565b60405180910390a35050505050565b5f815f01518260200151836040015184606001516040516020016107a8949392919061159e565b604051602081830303815290604052805190602001209050919050565b604051806060016040528085858080601f0160208091040260200160405190810160405280939291908181526020018383808284375f92019190915250505090825250604080516020601f8601819004810282018101909252848152918101919085908590819084018382808284375f920182905250938552505042602093840152503381526003909152604090208151819061086290826115f3565b506020820151600182019061087790826115f3565b506040918201516002909101555133907fbe4ec58a792f909e102ee3d745d0c3b34a4d437a54d903c4db098d31c556422f905f90a250505050565b60036020525f90815260409020805481906108cc906111c3565b80601f01602080910402602001604051908101604052809291908181526020018280546108f8906111c3565b80156109435780601f1061091a57610100808354040283529160200191610943565b820191905f5260205f20905b81548152906001019060200180831161092657829003601f168201915b505050505090806001018054610958906111c3565b80601f0160208091040260200160405190810160405280929190818152602001828054610984906111c3565b80156109cf5780601f106109a6576101008083540402835291602001916109cf565b820191905f5260205f20905b8154815290600101906020018083116109b257829003601f168201915b5050505050908060020154905083565b6109e7610c7a565b600280547fffffffffffffffffffffffff00000000000000000000000000000000000000001673ffffffffffffffffffffffffffffffffffffffff83169081179091556040519081527fe5693914d19c789bdee50a362998c0bc8d035a835f9871da5d51152f0582c34f906020015b60405180910390a150565b5f5b81811015610b695736838383818110610a7e57610a7e61170a565b9050602002810190610a909190611737565b905073ffffffffffffffffffffffffffffffffffffffff7f00000000000000000000000000000000000000000000000000000000000000001663cf092995610adb602084018461109a565b610aeb604085016020860161109a565b60408501356060860135608087013560a0880135610b0c60c08a018a611402565b6040518963ffffffff1660e01b8152600401610b2f9897969594939291906114aa565b5f604051808303815f87803b158015610b46575f5ffd5b505af1158015610b58573d5f5f3e3d5ffd5b505060019093019250610a63915050565b505050565b610b76610c7a565b612710811115610be2576040517f08c379a000000000000000000000000000000000000000000000000000000000815260206004820152600c60248201527f46656520746f6f2068696768000000000000000000000000000000000000000060448201526064016103fd565b60018190556040518181527f64d1887078a96d281ed60dd69ba75bfb6b5cd2cb4c2d2538b2eb7816a4c646ea90602001610a56565b610c1f610c7a565b73ffffffffffffffffffffffffffffffffffffffff8116610c6e576040517f1e4fbdf70000000000000000000000000000000000000000000000000000000081525f60048201526024016103fd565b610c7781610ccc565b50565b5f5473ffffffffffffffffffffffffffffffffffffffff16331461035e576040517f118cdaa70000000000000000000000000000000000000000000000000000000081523360048201526024016103fd565b5f805473ffffffffffffffffffffffffffffffffffffffff8381167fffffffffffffffffffffffff0000000000000000000000000000000000000000831681178455604051919092169283917f8be0079c531659141344cd1fd0a4f28419497f9722a3daafe3b4186f6b6457e09190a35050565b5f5f83601f840112610d50575f5ffd5b50813567ffffffffffffffff811115610d67575f5ffd5b602083019150836020828501011115610d7e575f5ffd5b9250929050565b5f5f60208385031215610d96575f5ffd5b823567ffffffffffffffff811115610dac575f5ffd5b610db885828601610d40565b90969095509350505050565b5f5f60408385031215610dd5575f5ffd5b823567ffffffffffffffff811115610deb575f5ffd5b830160808186031215610dfc575f5ffd5b9150602083013567ffffffffffffffff811115610e17575f5ffd5b830160a08186031215610e28575f5ffd5b809150509250929050565b7f4e487b71000000000000000000000000000000000000000000000000000000005f52604160045260245ffd5b803573ffffffffffffffffffffffffffffffffffffffff81168114610e83575f5ffd5b919050565b803561ffff81168114610e83575f5ffd5b5f82601f830112610ea8575f5ffd5b813567ffffffffffffffff811115610ec257610ec2610e33565b604051601f82017fffffffffffffffffffffffffffffffffffffffffffffffffffffffffffffffe0908116603f0116810167ffffffffffffffff81118282101715610f0f57610f0f610e33565b604052818152838201602001851015610f26575f5ffd5b816020850160208301375f918101602001919091529392505050565b5f60808284031215610f52575f5ffd5b6040516080810167ffffffffffffffff81118282101715610f7557610f75610e33565b604052905080610f8483610e60565b8152610f9260208401610e88565b6020820152604083013567ffffffffffffffff811115610fb0575f5ffd5b610fbc85828601610e99565b604083015250606083013567ffffffffffffffff811115610fdb575f5ffd5b610fe785828601610e99565b6060830152505092915050565b5f60208284031215611004575f5ffd5b813567ffffffffffffffff81111561101a575f5ffd5b61102684828501610f42565b949350505050565b5f5f5f5f60408587031215611041575f5ffd5b843567ffffffffffffffff811115611057575f5ffd5b61106387828801610d40565b909550935050602085013567ffffffffffffffff811115611082575f5ffd5b61108e87828801610d40565b95989497509550505050565b5f602082840312156110aa575f5ffd5b6110b382610e60565b9392505050565b5f81518084528060208401602086015e5f6020828601015260207fffffffffffffffffffffffffffffffffffffffffffffffffffffffffffffffe0601f83011685010191505092915050565b606081525f61111860608301866110ba565b828103602084015261112a81866110ba565b915050826040830152949350505050565b5f5f6020838503121561114c575f5ffd5b823567ffffffffffffffff811115611162575f5ffd5b8301601f81018513611172575f5ffd5b803567ffffffffffffffff811115611188575f5ffd5b8560208260051b840101111561119c575f5ffd5b6020919091019590945092505050565b5f602082840312156111bc575f5ffd5b5035919050565b600181811c908216806111d757607f821691505b60208210810361120e577f4e487b71000000000000000000000000000000000000000000000000000000005f52602260045260245ffd5b50919050565b601f821115610b6957805f5260205f20601f840160051c810160208510156112395750805b601f840160051c820191505b81811015611258575f8155600101611245565b5050505050565b67ffffffffffffffff83111561127757611277610e33565b61128b8361128583546111c3565b83611214565b5f601f8411600181146112db575f85156112a55750838201355b7fffffffffffffffffffffffffffffffffffffffffffffffffffffffffffffffff600387901b1c1916600186901b178355611258565b5f838152602081207fffffffffffffffffffffffffffffffffffffffffffffffffffffffffffffffe08716915b828110156113285786850135825560209485019460019092019101611308565b5086821015611363577fffffffffffffffffffffffffffffffffffffffffffffffffffffffffffffffff60f88860031b161c19848701351681555b505060018560011b0183555050505050565b5f6113803683610f42565b92915050565b7f4e487b71000000000000000000000000000000000000000000000000000000005f52601160045260245ffd5b808202811582820484141761138057611380611386565b5f826113fd577f4e487b71000000000000000000000000000000000000000000000000000000005f52601260045260245ffd5b500490565b5f5f83357fffffffffffffffffffffffffffffffffffffffffffffffffffffffffffffffe1843603018112611435575f5ffd5b83018035915067ffffffffffffffff82111561144f575f5ffd5b602001915036819003821315610d7e575f5ffd5b81835281816020850137505f602082840101525f60207fffffffffffffffffffffffffffffffffffffffffffffffffffffffffffffffe0601f840116840101905092915050565b73ffffffffffffffffffffffffffffffffffffffff8916815273ffffffffffffffffffffffffffffffffffffffff881660208201528660408201528560608201528460808201528360a082015260e060c08201525f61150d60e083018486611463565b9a9950505050505050505050565b5f6020828403121561152b575f5ffd5b815180151581146110b3575f5ffd5b8181038181111561138057611380611386565b5f6020828403121561155d575f5ffd5b6110b382610e88565b606081525f611579606083018789611463565b8560208401528281036040840152611592818587611463565b98975050505050505050565b73ffffffffffffffffffffffffffffffffffffffff8516815261ffff84166020820152608060408201525f6115d660808301856110ba565b82810360608401526115e881856110ba565b979650505050505050565b815167ffffffffffffffff81111561160d5761160d610e33565b6116218161161b84546111c3565b84611214565b6020601f821160018114611672575f831561163c5750848201515b7fffffffffffffffffffffffffffffffffffffffffffffffffffffffffffffffff600385901b1c1916600184901b178455611258565b5f848152602081207fffffffffffffffffffffffffffffffffffffffffffffffffffffffffffffffe08516915b828110156116bf578785015182556020948501946001909201910161169f565b50848210156116fb57868401517fffffffffffffffffffffffffffffffffffffffffffffffffffffffffffffffff600387901b60f8161c191681555b50505050600190811b01905550565b7f4e487b71000000000000000000000000000000000000000000000000000000005f52603260045260245ffd5b5f82357fffffffffffffffffffffffffffffffffffffffffffffffffffffffffffffff21833603018112611769575f5ffd5b919091019291505056fea2646970667358221220ad7e2ef7b3e4ec6b80328fc62e880f0174e19a07169f91ad0e139987beddee4d64736f6c634300081c0033","linkReferences":{}},"methodIdentifiers":{"FEE_DENOMINATOR()":"d73792a9","USDC()":"89a30271","createProfile(bytes,bytes)":"a7608038","donate((address,uint16,bytes,bytes),(address,uint256,uint256,uint256,bytes))":"94575c86","feeCollector()":"c415b95c","feePercent()":"7fd6f15c","hashDonation((address,uint16,bytes,bytes))":"a4353403","multipleTransferAuthorized((address,address,uint256,uint256,uint256,bytes32,bytes)[])":"dd1c9d4c","owner()":"8da5cb5b","profilesOfAddress(address)":"b7cb3e45","renounceOwnership()":"715018a6","transferOwnership(address)":"f2fde38b","updateFeeCollector(address)":"d2c35ce8","updateFeePercent(uint256)":"f05c5fed","updateProfile(bytes)":"3354c373"},"id":35}