{"abi":[{"type":"constructor","inputs":[{"name":"_owner","type":"address","internalType":"address"},{"name":"_feePercent","type":"uint256","internalType":"uint256"},{"name":"_feeCollector","type":"address","internalType":"address"},{"name":"_usdc","type":"address","internalType":"address"}],"stateMutability":"nonpayable"},{"type":"function","name":"FEE_DENOMINATOR","inputs":[],"outputs":[{"name":"","type":"uint256","internalType":"uint256"}],"stateMutability":"view"},{"type":"function","name":"USDC","inputs":[],"outputs":[{"name":"","type":"address","internalType":"contract IUSDC"}],"stateMutability":"view"},{"type":"function","name":"addressOfUsername","inputs":[{"name":"","type":"bytes","internalType":"bytes"}],"outputs":[{"name":"","type":"address","internalType":"address"}],"stateMutability":"view"},{"type":"function","name":"createProfile","inputs":[{"name":"_username","type":"bytes","internalType":"bytes"},{"name":"_key","type":"bytes","internalType":"bytes"},{"name":"_profile","type":"bytes","internalType":"bytes"}],"outputs":[],"stateMutability":"nonpayable"},{"type":"function","name":"donate","inputs":[{"name":"_donation","type":"tuple","internalType":"struct Stealth.Donation","components":[{"name":"to","type":"address","internalType":"address"},{"name":"viewTag","type":"uint16","internalType":"uint16"},{"name":"ephemeralPublicKey","type":"bytes","internalType":"bytes"},{"name":"message","type":"bytes","internalType":"bytes"}]},{"name":"_transfer","type":"tuple","internalType":"struct Stealth.TranferAuthorized","components":[{"name":"from","type":"address","internalType":"address"},{"name":"value","type":"uint256","internalType":"uint256"},{"name":"validAfter","type":"uint256","internalType":"uint256"},{"name":"validBefore","type":"uint256","internalType":"uint256"},{"name":"signature","type":"bytes","internalType":"bytes"}]}],"outputs":[],"stateMutability":"payable"},{"type":"function","name":"feeCollector","inputs":[],"outputs":[{"name":"","type":"address","internalType":"address"}],"stateMutability":"view"},{"type":"function","name":"feePercent","inputs":[],"outputs":[{"name":"","type":"uint256","internalType":"uint256"}],"stateMutability":"view"},{"type":"function","name":"hashDonation","inputs":[{"name":"_donation","type":"tuple","internalType":"struct Stealth.Donation","components":[{"name":"to","type":"address","internalType":"address"},{"name":"viewTag","type":"uint16","internalType":"uint16"},{"name":"ephemeralPublicKey","type":"bytes","internalType":"bytes"},{"name":"message","type":"bytes","internalType":"bytes"}]}],"outputs":[{"name":"","type":"bytes32","internalType":"bytes32"}],"stateMutability":"pure"},{"type":"function","name":"multipleTransferAuthorized","inputs":[{"name":"_transfers","type":"tuple[]","internalType":"struct Stealth.FullTranferAuthorized[]","components":[{"name":"from","type":"address","internalType":"address"},{"name":"to","type":"address","internalType":"address"},{"name":"value","type":"uint256","internalType":"uint256"},{"name":"validAfter","type":"uint256","internalType":"uint256"},{"name":"validBefore","type":"uint256","internalType":"uint256"},{"name":"nonce","type":"bytes32","internalType":"bytes32"},{"name":"signature","type":"bytes","internalType":"bytes"}]}],"outputs":[],"stateMutability":"nonpayable"},{"type":"function","name":"owner","inputs":[],"outputs":[{"name":"","type":"address","internalType":"address"}],"stateMutability":"view"},{"type":"function","name":"profilesOfAddress","inputs":[{"name":"","type":"address","internalType":"address"}],"outputs":[{"name":"username","type":"bytes","internalType":"bytes"},{"name":"key","type":"bytes","internalType":"bytes"},{"name":"profile","type":"bytes","internalType":"bytes"},{"name":"createdAt","type":"uint256","internalType":"uint256"}],"stateMutability":"view"},{"type":"function","name":"renounceOwnership","inputs":[],"outputs":[],"stateMutability":"nonpayable"},{"type":"function","name":"transferOwnership","inputs":[{"name":"newOwner","type":"address","internalType":"address"}],"outputs":[],"stateMutability":"nonpayable"},{"type":"function","name":"updateFeeCollector","inputs":[{"name":"_feeCollector","type":"address","internalType":"address"}],"outputs":[],"stateMutability":"nonpayable"},{"type":"function","name":"updateFeePercent","inputs":[{"name":"_feePercent","type":"uint256","internalType":"uint256"}],"outputs":[],"stateMutability":"nonpayable"},{"type":"function","name":"updateProfile","inputs":[{"name":"_profile","type":"bytes","internalType":"bytes"}],"outputs":[],"stateMutability":"nonpayable"},{"type":"event","name":"Announcement","inputs":[{"name":"stealthAddress","type":"address","indexed":true,"internalType":"address"},{"name":"viewTag","type":"uint16","indexed":true,"internalType":"uint16"},{"name":"ephemeralPublicKey","type":"bytes","indexed":false,"internalType":"bytes"},{"name":"amount","type":"uint256","indexed":false,"internalType":"uint256"},{"name":"message","type":"bytes","indexed":false,"internalType":"bytes"}],"anonymous":false},{"type":"event","name":"FeeCollectorUpdated","inputs":[{"name":"newFeeCollector","type":"address","indexed":false,"internalType":"address"}],"anonymous":false},{"type":"event","name":"FeePercentUpdated","inputs":[{"name":"newFeePercent","type":"uint256","indexed":false,"internalType":"uint256"}],"anonymous":false},{"type":"event","name":"OwnershipTransferred","inputs":[{"name":"previousOwner","type":"address","indexed":true,"internalType":"address"},{"name":"newOwner","type":"address","indexed":true,"internalType":"address"}],"anonymous":false},{"type":"event","name":"ProfileUpdated","inputs":[{"name":"user","type":"address","indexed":true,"internalType":"address"}],"anonymous":false},{"type":"error","name":"OwnableInvalidOwner","inputs":[{"name":"owner","type":"address","internalType":"address"}]},{"type":"error","name":"OwnableUnauthorizedAccount","inputs":[{"name":"account","type":"address","internalType":"address"}]}],"bytecode":{"object":"0x60a060405234801561000f575f5ffd5b50604051611bb1380380611bb183398101604081905261002e916100fc565b836001600160a01b03811661005c57604051631e4fbdf760e01b81525f600482015260240160405180910390fd5b61006581610092565b50600192909255600280546001600160a01b0319166001600160a01b039283161790551660805250610146565b5f80546001600160a01b038381166001600160a01b0319831681178455604051919092169283917f8be0079c531659141344cd1fd0a4f28419497f9722a3daafe3b4186f6b6457e09190a35050565b80516001600160a01b03811681146100f7575f5ffd5b919050565b5f5f5f5f6080858703121561010f575f5ffd5b610118856100e1565b93506020850151925061012d604086016100e1565b915061013b606086016100e1565b905092959194509250565b608051611a3761017a5f395f81816101f20152818161070a015281816107f70152818161087d0152610cae0152611a375ff3fe6080604052600436106100ef575f3560e01c8063a435340311610087578063d73792a911610057578063d73792a9146102e9578063dd1c9d4c146102fe578063f05c5fed1461031d578063f2fde38b1461033c575f5ffd5b8063a435340314610250578063b7cb3e451461026f578063c415b95c1461029e578063d2c35ce8146102ca575f5ffd5b80637fd6f15c116100c25780637fd6f15c146101be57806389a30271146101e15780638da5cb5b1461021457806394575c861461023d575f5ffd5b80633354c373146100f35780633fa8aed714610114578063715018a61461018b57806378a3eca11461019f575b5f5ffd5b3480156100fe575f5ffd5b5061011261010d366004610f8a565b61035b565b005b34801561011f575f5ffd5b5061016161012e36600461109f565b805160208183018101805160048252928201919093012091525473ffffffffffffffffffffffffffffffffffffffff1681565b60405173ffffffffffffffffffffffffffffffffffffffff90911681526020015b60405180910390f35b348015610196575f5ffd5b506101126103a6565b3480156101aa575f5ffd5b506101126101b93660046110d9565b6103b9565b3480156101c9575f5ffd5b506101d360015481565b604051908152602001610182565b3480156101ec575f5ffd5b506101617f000000000000000000000000000000000000000000000000000000000000000081565b34801561021f575f5ffd5b505f5473ffffffffffffffffffffffffffffffffffffffff16610161565b61011261024b366004611178565b6105cb565b34801561025b575f5ffd5b506101d361026a3660046112d2565b6109e7565b34801561027a575f5ffd5b5061028e610289366004611304565b610a2b565b6040516101829493929190611370565b3480156102a9575f5ffd5b506002546101619073ffffffffffffffffffffffffffffffffffffffff1681565b3480156102d5575f5ffd5b506101126102e4366004611304565b610be4565b3480156102f4575f5ffd5b506101d361271081565b348015610309575f5ffd5b506101126103183660046113ba565b610c66565b348015610328575f5ffd5b5061011261033736600461142b565b610d73565b348015610347575f5ffd5b50610112610356366004611304565b610e1c565b335f9081526003602052604090206002016103778284836114de565b5060405133907fbe4ec58a792f909e102ee3d745d0c3b34a4d437a54d903c4db098d31c556422f905f90a25050565b6103ae610e7f565b6103b75f610ed1565b565b84610425576040517f08c379a000000000000000000000000000000000000000000000000000000000815260206004820152601060248201527f496e76616c696420757365726e616d650000000000000000000000000000000060448201526064015b60405180910390fd5b604051806080016040528087878080601f0160208091040260200160405190810160405280939291908181526020018383808284375f92019190915250505090825250604080516020601f8801819004810282018101909252868152918101919087908790819084018382808284375f92019190915250505090825250604080516020601f8601819004810282018101909252848152918101919085908590819084018382808284375f92018290525093855250504260209384015250338152600390915260409020815181906104fc90826115f4565b506020820151600182019061051190826115f4565b506040820151600282019061052690826115f4565b5060608201518160030155905050336004878760405161054792919061170b565b908152604051908190036020018120805473ffffffffffffffffffffffffffffffffffffffff939093167fffffffffffffffffffffffff00000000000000000000000000000000000000009093169290921790915533907fbe4ec58a792f909e102ee3d745d0c3b34a4d437a54d903c4db098d31c556422f905f90a2505050505050565b5f6105d861026a8461171a565b9050602080830135905f906105ef90860186611304565b73ffffffffffffffffffffffffffffffffffffffff160361066c576040517f08c379a000000000000000000000000000000000000000000000000000000000815260206004820152600a60248201527f496e76616c696420746f00000000000000000000000000000000000000000000604482015260640161041c565b5f81116106d5576040517f08c379a000000000000000000000000000000000000000000000000000000000815260206004820152600e60248201527f496e76616c696420616d6f756e74000000000000000000000000000000000000604482015260640161041c565b5f612710600154836106e79190611758565b6106f1919061176f565b905073ffffffffffffffffffffffffffffffffffffffff7f0000000000000000000000000000000000000000000000000000000000000000166388b7ab6361073c6020870187611304565b306020880135604089013560608a01358961075a60808d018d6117a7565b6040518963ffffffff1660e01b815260040161077d98979695949392919061184f565b5f604051808303815f87803b158015610794575f5ffd5b505af11580156107a6573d5f5f3e3d5ffd5b50506002546040517fa9059cbb00000000000000000000000000000000000000000000000000000000815273ffffffffffffffffffffffffffffffffffffffff9182166004820152602481018590527f0000000000000000000000000000000000000000000000000000000000000000909116925063a9059cbb91506044016020604051808303815f875af1158015610841573d5f5f3e3d5ffd5b505050506040513d601f19601f8201168201806040525081019061086591906118c0565b5073ffffffffffffffffffffffffffffffffffffffff7f00000000000000000000000000000000000000000000000000000000000000001663a9059cbb6108af6020880188611304565b6108b984866118df565b6040517fffffffff0000000000000000000000000000000000000000000000000000000060e085901b16815273ffffffffffffffffffffffffffffffffffffffff909216600483015260248201526044016020604051808303815f875af1158015610926573d5f5f3e3d5ffd5b505050506040513d601f19601f8201168201806040525081019061094a91906118c0565b5061095b60408601602087016118f2565b61ffff1661096c6020870187611304565b73ffffffffffffffffffffffffffffffffffffffff167f14c6b30f95da52d86952583e78f232086f8d99719b7e278036989f92515205116109b060408901896117a7565b6109ba86886118df565b6109c760608c018c6117a7565b6040516109d895949392919061190b565b60405180910390a35050505050565b5f815f0151826020015183604001518460600151604051602001610a0e9493929190611943565b604051602081830303815290604052805190602001209050919050565b60036020525f9081526040902080548190610a4590611442565b80601f0160208091040260200160405190810160405280929190818152602001828054610a7190611442565b8015610abc5780601f10610a9357610100808354040283529160200191610abc565b820191905f5260205f20905b815481529060010190602001808311610a9f57829003601f168201915b505050505090806001018054610ad190611442565b80601f0160208091040260200160405190810160405280929190818152602001828054610afd90611442565b8015610b485780601f10610b1f57610100808354040283529160200191610b48565b820191905f5260205f20905b815481529060010190602001808311610b2b57829003601f168201915b505050505090806002018054610b5d90611442565b80601f0160208091040260200160405190810160405280929190818152602001828054610b8990611442565b8015610bd45780601f10610bab57610100808354040283529160200191610bd4565b820191905f5260205f20905b815481529060010190602001808311610bb757829003601f168201915b5050505050908060030154905084565b610bec610e7f565b600280547fffffffffffffffffffffffff00000000000000000000000000000000000000001673ffffffffffffffffffffffffffffffffffffffff83169081179091556040519081527fe5693914d19c789bdee50a362998c0bc8d035a835f9871da5d51152f0582c34f906020015b60405180910390a150565b5f5b81811015610d6e5736838383818110610c8357610c83611998565b9050602002810190610c9591906119c5565b905073ffffffffffffffffffffffffffffffffffffffff7f00000000000000000000000000000000000000000000000000000000000000001663cf092995610ce06020840184611304565b610cf06040850160208601611304565b60408501356060860135608087013560a0880135610d1160c08a018a6117a7565b6040518963ffffffff1660e01b8152600401610d3498979695949392919061184f565b5f604051808303815f87803b158015610d4b575f5ffd5b505af1158015610d5d573d5f5f3e3d5ffd5b505060019093019250610c68915050565b505050565b610d7b610e7f565b612710811115610de7576040517f08c379a000000000000000000000000000000000000000000000000000000000815260206004820152600c60248201527f46656520746f6f20686967680000000000000000000000000000000000000000604482015260640161041c565b60018190556040518181527f64d1887078a96d281ed60dd69ba75bfb6b5cd2cb4c2d2538b2eb7816a4c646ea90602001610c5b565b610e24610e7f565b73ffffffffffffffffffffffffffffffffffffffff8116610e73576040517f1e4fbdf70000000000000000000000000000000000000000000000000000000081525f600482015260240161041c565b610e7c81610ed1565b50565b5f5473ffffffffffffffffffffffffffffffffffffffff1633146103b7576040517f118cdaa700000000000000000000000000000000000000000000000000000000815233600482015260240161041c565b5f805473ffffffffffffffffffffffffffffffffffffffff8381167fffffffffffffffffffffffff0000000000000000000000000000000000000000831681178455604051919092169283917f8be0079c531659141344cd1fd0a4f28419497f9722a3daafe3b4186f6b6457e09190a35050565b5f5f83601f840112610f55575f5ffd5b50813567ffffffffffffffff811115610f6c575f5ffd5b602083019150836020828501011115610f83575f5ffd5b9250929050565b5f5f60208385031215610f9b575f5ffd5b823567ffffffffffffffff811115610fb1575f5ffd5b610fbd85828601610f45565b90969095509350505050565b7f4e487b71000000000000000000000000000000000000000000000000000000005f52604160045260245ffd5b5f82601f830112611005575f5ffd5b813567ffffffffffffffff81111561101f5761101f610fc9565b604051601f82017fffffffffffffffffffffffffffffffffffffffffffffffffffffffffffffffe0908116603f0116810167ffffffffffffffff8111828210171561106c5761106c610fc9565b604052818152838201602001851015611083575f5ffd5b816020850160208301375f918101602001919091529392505050565b5f602082840312156110af575f5ffd5b813567ffffffffffffffff8111156110c5575f5ffd5b6110d184828501610ff6565b949350505050565b5f5f5f5f5f5f606087890312156110ee575f5ffd5b863567ffffffffffffffff811115611104575f5ffd5b61111089828a01610f45565b909750955050602087013567ffffffffffffffff81111561112f575f5ffd5b61113b89828a01610f45565b909550935050604087013567ffffffffffffffff81111561115a575f5ffd5b61116689828a01610f45565b979a9699509497509295939492505050565b5f5f60408385031215611189575f5ffd5b823567ffffffffffffffff81111561119f575f5ffd5b8301608081860312156111b0575f5ffd5b9150602083013567ffffffffffffffff8111156111cb575f5ffd5b830160a081860312156111dc575f5ffd5b809150509250929050565b803573ffffffffffffffffffffffffffffffffffffffff8116811461120a575f5ffd5b919050565b803561ffff8116811461120a575f5ffd5b5f60808284031215611230575f5ffd5b6040516080810167ffffffffffffffff8111828210171561125357611253610fc9565b604052905080611262836111e7565b81526112706020840161120f565b6020820152604083013567ffffffffffffffff81111561128e575f5ffd5b61129a85828601610ff6565b604083015250606083013567ffffffffffffffff8111156112b9575f5ffd5b6112c585828601610ff6565b6060830152505092915050565b5f602082840312156112e2575f5ffd5b813567ffffffffffffffff8111156112f8575f5ffd5b6110d184828501611220565b5f60208284031215611314575f5ffd5b61131d826111e7565b9392505050565b5f81518084528060208401602086015e5f6020828601015260207fffffffffffffffffffffffffffffffffffffffffffffffffffffffffffffffe0601f83011685010191505092915050565b608081525f6113826080830187611324565b82810360208401526113948187611324565b905082810360408401526113a88186611324565b91505082606083015295945050505050565b5f5f602083850312156113cb575f5ffd5b823567ffffffffffffffff8111156113e1575f5ffd5b8301601f810185136113f1575f5ffd5b803567ffffffffffffffff811115611407575f5ffd5b8560208260051b840101111561141b575f5ffd5b6020919091019590945092505050565b5f6020828403121561143b575f5ffd5b5035919050565b600181811c9082168061145657607f821691505b60208210810361148d577f4e487b71000000000000000000000000000000000000000000000000000000005f52602260045260245ffd5b50919050565b601f821115610d6e57805f5260205f20601f840160051c810160208510156114b85750805b601f840160051c820191505b818110156114d7575f81556001016114c4565b5050505050565b67ffffffffffffffff8311156114f6576114f6610fc9565b61150a836115048354611442565b83611493565b5f601f84116001811461155a575f85156115245750838201355b7fffffffffffffffffffffffffffffffffffffffffffffffffffffffffffffffff600387901b1c1916600186901b1783556114d7565b5f838152602081207fffffffffffffffffffffffffffffffffffffffffffffffffffffffffffffffe08716915b828110156115a75786850135825560209485019460019092019101611587565b50868210156115e2577fffffffffffffffffffffffffffffffffffffffffffffffffffffffffffffffff60f88860031b161c19848701351681555b505060018560011b0183555050505050565b815167ffffffffffffffff81111561160e5761160e610fc9565b6116228161161c8454611442565b84611493565b6020601f821160018114611673575f831561163d5750848201515b7fffffffffffffffffffffffffffffffffffffffffffffffffffffffffffffffff600385901b1c1916600184901b1784556114d7565b5f848152602081207fffffffffffffffffffffffffffffffffffffffffffffffffffffffffffffffe08516915b828110156116c057878501518255602094850194600190920191016116a0565b50848210156116fc57868401517fffffffffffffffffffffffffffffffffffffffffffffffffffffffffffffffff600387901b60f8161c191681555b50505050600190811b01905550565b818382375f9101908152919050565b5f6117253683611220565b92915050565b7f4e487b71000000000000000000000000000000000000000000000000000000005f52601160045260245ffd5b80820281158282048414176117255761172561172b565b5f826117a2577f4e487b71000000000000000000000000000000000000000000000000000000005f52601260045260245ffd5b500490565b5f5f83357fffffffffffffffffffffffffffffffffffffffffffffffffffffffffffffffe18436030181126117da575f5ffd5b83018035915067ffffffffffffffff8211156117f4575f5ffd5b602001915036819003821315610f83575f5ffd5b81835281816020850137505f602082840101525f60207fffffffffffffffffffffffffffffffffffffffffffffffffffffffffffffffe0601f840116840101905092915050565b73ffffffffffffffffffffffffffffffffffffffff8916815273ffffffffffffffffffffffffffffffffffffffff881660208201528660408201528560608201528460808201528360a082015260e060c08201525f6118b260e083018486611808565b9a9950505050505050505050565b5f602082840312156118d0575f5ffd5b8151801515811461131d575f5ffd5b818103818111156117255761172561172b565b5f60208284031215611902575f5ffd5b61131d8261120f565b606081525f61191e606083018789611808565b8560208401528281036040840152611937818587611808565b98975050505050505050565b73ffffffffffffffffffffffffffffffffffffffff8516815261ffff84166020820152608060408201525f61197b6080830185611324565b828103606084015261198d8185611324565b979650505050505050565b7f4e487b71000000000000000000000000000000000000000000000000000000005f52603260045260245ffd5b5f82357fffffffffffffffffffffffffffffffffffffffffffffffffffffffffffffff218336030181126119f7575f5ffd5b919091019291505056fea2646970667358221220e1142dc091d7d8d46dca3beb341871dc59bfd56bfbfe93f192b7cb7a3539b15764736f6c634300081c0033","linkReferences":{}},"methodIdentifiers":{"FEE_DENOMINATOR()":"d73792a9","USDC()":"89a30271","addressOfUsername(bytes)":"3fa8aed7","createProfile(bytes,bytes,bytes)":"78a3eca1","donate((address,uint16,bytes,bytes),(address,uint256,uint256,uint256,bytes))":"94575c86","feeCollector()":"c415b95c","feePercent()":"7fd6f15c","hashDonation((address,uint16,bytes,bytes))":"a4353403","multipleTransferAuthorized((address,address,uint256,uint256,uint256,bytes32,bytes)[])":"dd1c9d4c","owner()":"8da5cb5b","profilesOfAddress(address)":"b7cb3e45","renounceOwnership()":"715018a6","transferOwnership(address)":"f2fde38b","updateFeeCollector(address)":"d2c35ce8","updateFeePercent(uint256)":"f05c5fed","updateProfile(bytes)":"3354c373"},"id":35}