{"abi":[{"type":"constructor","inputs":[{"name":"_owner","type":"address","internalType":"address"},{"name":"_feePercent","type":"uint256","internalType":"uint256"},{"name":"_feeCollector","type":"address","internalType":"address"},{"name":"_usdc","type":"address","internalType":"address"},{"name":"_announcer","type":"address","internalType":"address"}],"stateMutability":"nonpayable"},{"type":"function","name":"ANNOUNCER","inputs":[],"outputs":[{"name":"","type":"address","internalType":"contract IERC5564Announcer"}],"stateMutability":"view"},{"type":"function","name":"FEE_DENOMINATOR","inputs":[],"outputs":[{"name":"","type":"uint256","internalType":"uint256"}],"stateMutability":"view"},{"type":"function","name":"USDC","inputs":[],"outputs":[{"name":"","type":"address","internalType":"contract IUSDC"}],"stateMutability":"view"},{"type":"function","name":"createProfile","inputs":[{"name":"_key","type":"bytes","internalType":"bytes"},{"name":"_profile","type":"bytes","internalType":"bytes"}],"outputs":[],"stateMutability":"nonpayable"},{"type":"function","name":"donate","inputs":[{"name":"_donation","type":"tuple","internalType":"struct Stealth.Donation","components":[{"name":"to","type":"address","internalType":"address"},{"name":"viewTag","type":"bytes1","internalType":"bytes1"},{"name":"ephemeralPublicKey","type":"bytes","internalType":"bytes"},{"name":"message","type":"bytes","internalType":"bytes"}]},{"name":"_transfer","type":"tuple","internalType":"struct Stealth.TranferAuthorized","components":[{"name":"from","type":"address","internalType":"address"},{"name":"value","type":"uint256","internalType":"uint256"},{"name":"validAfter","type":"uint256","internalType":"uint256"},{"name":"validBefore","type":"uint256","internalType":"uint256"},{"name":"signature","type":"bytes","internalType":"bytes"}]}],"outputs":[],"stateMutability":"payable"},{"type":"function","name":"feeCollector","inputs":[],"outputs":[{"name":"","type":"address","internalType":"address"}],"stateMutability":"view"},{"type":"function","name":"feePercent","inputs":[],"outputs":[{"name":"","type":"uint256","internalType":"uint256"}],"stateMutability":"view"},{"type":"function","name":"hashDonation","inputs":[{"name":"_donation","type":"tuple","internalType":"struct Stealth.Donation","components":[{"name":"to","type":"address","internalType":"address"},{"name":"viewTag","type":"bytes1","internalType":"bytes1"},{"name":"ephemeralPublicKey","type":"bytes","internalType":"bytes"},{"name":"message","type":"bytes","internalType":"bytes"}]}],"outputs":[{"name":"","type":"bytes32","internalType":"bytes32"}],"stateMutability":"pure"},{"type":"function","name":"multipleTransferAuthorized","inputs":[{"name":"_transfers","type":"tuple[]","internalType":"struct Stealth.FullTranferAuthorized[]","components":[{"name":"from","type":"address","internalType":"address"},{"name":"to","type":"address","internalType":"address"},{"name":"value","type":"uint256","internalType":"uint256"},{"name":"signature","type":"bytes","internalType":"bytes"}]},{"name":"validAfter","type":"uint256","internalType":"uint256"},{"name":"validBefore","type":"uint256","internalType":"uint256"},{"name":"nonce","type":"bytes32","internalType":"bytes32"}],"outputs":[],"stateMutability":"nonpayable"},{"type":"function","name":"owner","inputs":[],"outputs":[{"name":"","type":"address","internalType":"address"}],"stateMutability":"view"},{"type":"function","name":"profilesOfAddress","inputs":[{"name":"","type":"address","internalType":"address"}],"outputs":[{"name":"key","type":"bytes","internalType":"bytes"},{"name":"profile","type":"bytes","internalType":"bytes"},{"name":"createdAt","type":"uint256","internalType":"uint256"}],"stateMutability":"view"},{"type":"function","name":"renounceOwnership","inputs":[],"outputs":[],"stateMutability":"nonpayable"},{"type":"function","name":"transferOwnership","inputs":[{"name":"newOwner","type":"address","internalType":"address"}],"outputs":[],"stateMutability":"nonpayable"},{"type":"function","name":"updateFeeCollector","inputs":[{"name":"_feeCollector","type":"address","internalType":"address"}],"outputs":[],"stateMutability":"nonpayable"},{"type":"function","name":"updateFeePercent","inputs":[{"name":"_feePercent","type":"uint256","internalType":"uint256"}],"outputs":[],"stateMutability":"nonpayable"},{"type":"function","name":"updateProfile","inputs":[{"name":"_profile","type":"bytes","internalType":"bytes"}],"outputs":[],"stateMutability":"nonpayable"},{"type":"event","name":"FeeCollectorUpdated","inputs":[{"name":"newFeeCollector","type":"address","indexed":false,"internalType":"address"}],"anonymous":false},{"type":"event","name":"FeePercentUpdated","inputs":[{"name":"newFeePercent","type":"uint256","indexed":false,"internalType":"uint256"}],"anonymous":false},{"type":"event","name":"OwnershipTransferred","inputs":[{"name":"previousOwner","type":"address","indexed":true,"internalType":"address"},{"name":"newOwner","type":"address","indexed":true,"internalType":"address"}],"anonymous":false},{"type":"event","name":"ProfileUpdated","inputs":[{"name":"user","type":"address","indexed":true,"internalType":"address"}],"anonymous":false},{"type":"error","name":"OwnableInvalidOwner","inputs":[{"name":"owner","type":"address","internalType":"address"}]},{"type":"error","name":"OwnableUnauthorizedAccount","inputs":[{"name":"account","type":"address","internalType":"address"}]}],"bytecode":{"object":"0x60c060405234801561000f575f5ffd5b50604051611af4380380611af483398101604081905261002e91610101565b846001600160a01b03811661005c57604051631e4fbdf760e01b81525f600482015260240160405180910390fd5b61006581610097565b50600193909355600280546001600160a01b0319166001600160a01b0393841617905581166080521660a0525061015b565b5f80546001600160a01b038381166001600160a01b0319831681178455604051919092169283917f8be0079c531659141344cd1fd0a4f28419497f9722a3daafe3b4186f6b6457e09190a35050565b80516001600160a01b03811681146100fc575f5ffd5b919050565b5f5f5f5f5f60a08688031215610115575f5ffd5b61011e866100e6565b945060208601519350610133604087016100e6565b9250610141606087016100e6565b915061014f608087016100e6565b90509295509295909350565b60805160a05161195561019f5f395f8181610104015261083e01525f81816101eb015281816103d3015281816105e6015281816106d3015261075901526119555ff3fe6080604052600436106100ef575f3560e01c8063a760803811610087578063d73792a911610057578063d73792a9146102ce578063f05c5fed146102e3578063f2fde38b14610302578063fae5b08f14610321575f5ffd5b8063a760803814610236578063b7cb3e4514610255578063c415b95c14610283578063d2c35ce8146102af575f5ffd5b80637d767bc4116100c25780637d767bc4146101a45780637fd6f15c146101b757806389a30271146101da5780638da5cb5b1461020d575f5ffd5b806304e6b741146100f35780633354c37314610150578063629153d414610171578063715018a614610190575b5f5ffd5b3480156100fe575f5ffd5b506101267f000000000000000000000000000000000000000000000000000000000000000081565b60405173ffffffffffffffffffffffffffffffffffffffff90911681526020015b60405180910390f35b34801561015b575f5ffd5b5061016f61016a366004610e81565b610340565b005b34801561017c575f5ffd5b5061016f61018b366004610ec0565b61038b565b34801561019b575f5ffd5b5061016f61048f565b61016f6101b2366004610f45565b6104a2565b3480156101c2575f5ffd5b506101cc60015481565b604051908152602001610147565b3480156101e5575f5ffd5b506101267f000000000000000000000000000000000000000000000000000000000000000081565b348015610218575f5ffd5b505f5473ffffffffffffffffffffffffffffffffffffffff16610126565b348015610241575f5ffd5b5061016f610250366004610fb4565b610911565b348015610260575f5ffd5b5061027461026f366004611048565b610a77565b604051610147939291906110b4565b34801561028e575f5ffd5b506002546101269073ffffffffffffffffffffffffffffffffffffffff1681565b3480156102ba575f5ffd5b5061016f6102c9366004611048565b610ba4565b3480156102d9575f5ffd5b506101cc61271081565b3480156102ee575f5ffd5b5061016f6102fd3660046110e9565b610c26565b34801561030d575f5ffd5b5061016f61031c366004611048565b610ccf565b34801561032c575f5ffd5b506101cc61033b3660046112b7565b610d32565b335f90815260036020526040902060010161035c82848361138e565b5060405133907fbe4ec58a792f909e102ee3d745d0c3b34a4d437a54d903c4db098d31c556422f905f90a25050565b5f5b8481101561048757368686838181106103a8576103a86114a4565b90506020028101906103ba91906114d1565b905073ffffffffffffffffffffffffffffffffffffffff7f00000000000000000000000000000000000000000000000000000000000000001663cf0929956104056020840184611048565b6104156040850160208601611048565b604085013589898961042a60608a018a61150d565b6040518963ffffffff1660e01b815260040161044d9897969594939291906115b5565b5f604051808303815f87803b158015610464575f5ffd5b505af1158015610476573d5f5f3e3d5ffd5b50506001909301925061038d915050565b505050505050565b610497610d76565b6104a05f610dc8565b565b5f6104af61033b84611626565b9050602080830135905f906104c690860186611048565b73ffffffffffffffffffffffffffffffffffffffff1603610548576040517f08c379a000000000000000000000000000000000000000000000000000000000815260206004820152600a60248201527f496e76616c696420746f0000000000000000000000000000000000000000000060448201526064015b60405180910390fd5b5f81116105b1576040517f08c379a000000000000000000000000000000000000000000000000000000000815260206004820152600e60248201527f496e76616c696420616d6f756e74000000000000000000000000000000000000604482015260640161053f565b5f612710600154836105c39190611664565b6105cd919061167b565b905073ffffffffffffffffffffffffffffffffffffffff7f0000000000000000000000000000000000000000000000000000000000000000166388b7ab636106186020870187611048565b306020880135604089013560608a01358961063660808d018d61150d565b6040518963ffffffff1660e01b81526004016106599897969594939291906115b5565b5f604051808303815f87803b158015610670575f5ffd5b505af1158015610682573d5f5f3e3d5ffd5b50506002546040517fa9059cbb00000000000000000000000000000000000000000000000000000000815273ffffffffffffffffffffffffffffffffffffffff9182166004820152602481018590527f0000000000000000000000000000000000000000000000000000000000000000909116925063a9059cbb91506044016020604051808303815f875af115801561071d573d5f5f3e3d5ffd5b505050506040513d601f19601f8201168201806040525081019061074191906116b3565b5073ffffffffffffffffffffffffffffffffffffffff7f00000000000000000000000000000000000000000000000000000000000000001663a9059cbb61078b6020880188611048565b61079584866116d2565b6040517fffffffff0000000000000000000000000000000000000000000000000000000060e085901b16815273ffffffffffffffffffffffffffffffffffffffff909216600483015260248201526044016020604051808303815f875af1158015610802573d5f5f3e3d5ffd5b505050506040513d601f19601f8201168201806040525081019061082691906116b3565b5073ffffffffffffffffffffffffffffffffffffffff7f000000000000000000000000000000000000000000000000000000000000000016634d1f958360016108726020890189611048565b61087f60408a018a61150d565b61088f60408c0160208d016116e5565b61089c60608d018d61150d565b6040516020016108ae939291906116fe565b6040516020818303038152906040526040518663ffffffff1660e01b81526004016108dd959493929190611742565b5f604051808303815f87803b1580156108f4575f5ffd5b505af1158015610906573d5f5f3e3d5ffd5b505050505050505050565b335f908152600360205260409020600201541561098a576040517f08c379a000000000000000000000000000000000000000000000000000000000815260206004820152601660248201527f50726f66696c6520616c72656164792065786973747300000000000000000000604482015260640161053f565b604051806060016040528085858080601f0160208091040260200160405190810160405280939291908181526020018383808284375f92019190915250505090825250604080516020601f8601819004810282018101909252848152918101919085908590819084018382808284375f9201829052509385525050426020938401525033815260039091526040902081518190610a279082611795565b5060208201516001820190610a3c9082611795565b506040918201516002909101555133907fbe4ec58a792f909e102ee3d745d0c3b34a4d437a54d903c4db098d31c556422f905f90a250505050565b60036020525f9081526040902080548190610a91906112f1565b80601f0160208091040260200160405190810160405280929190818152602001828054610abd906112f1565b8015610b085780601f10610adf57610100808354040283529160200191610b08565b820191905f5260205f20905b815481529060010190602001808311610aeb57829003601f168201915b505050505090806001018054610b1d906112f1565b80601f0160208091040260200160405190810160405280929190818152602001828054610b49906112f1565b8015610b945780601f10610b6b57610100808354040283529160200191610b94565b820191905f5260205f20905b815481529060010190602001808311610b7757829003601f168201915b5050505050908060020154905083565b610bac610d76565b600280547fffffffffffffffffffffffff00000000000000000000000000000000000000001673ffffffffffffffffffffffffffffffffffffffff83169081179091556040519081527fe5693914d19c789bdee50a362998c0bc8d035a835f9871da5d51152f0582c34f906020015b60405180910390a150565b610c2e610d76565b612710811115610c9a576040517f08c379a000000000000000000000000000000000000000000000000000000000815260206004820152600c60248201527f46656520746f6f20686967680000000000000000000000000000000000000000604482015260640161053f565b60018190556040518181527f64d1887078a96d281ed60dd69ba75bfb6b5cd2cb4c2d2538b2eb7816a4c646ea90602001610c1b565b610cd7610d76565b73ffffffffffffffffffffffffffffffffffffffff8116610d26576040517f1e4fbdf70000000000000000000000000000000000000000000000000000000081525f600482015260240161053f565b610d2f81610dc8565b50565b5f815f0151826020015183604001518460600151604051602001610d5994939291906118ac565b604051602081830303815290604052805190602001209050919050565b5f5473ffffffffffffffffffffffffffffffffffffffff1633146104a0576040517f118cdaa700000000000000000000000000000000000000000000000000000000815233600482015260240161053f565b5f805473ffffffffffffffffffffffffffffffffffffffff8381167fffffffffffffffffffffffff0000000000000000000000000000000000000000831681178455604051919092169283917f8be0079c531659141344cd1fd0a4f28419497f9722a3daafe3b4186f6b6457e09190a35050565b5f5f83601f840112610e4c575f5ffd5b50813567ffffffffffffffff811115610e63575f5ffd5b602083019150836020828501011115610e7a575f5ffd5b9250929050565b5f5f60208385031215610e92575f5ffd5b823567ffffffffffffffff811115610ea8575f5ffd5b610eb485828601610e3c565b90969095509350505050565b5f5f5f5f5f60808688031215610ed4575f5ffd5b853567ffffffffffffffff811115610eea575f5ffd5b8601601f81018813610efa575f5ffd5b803567ffffffffffffffff811115610f10575f5ffd5b8860208260051b8401011115610f24575f5ffd5b60209182019990985090870135966040810135965060600135945092505050565b5f5f60408385031215610f56575f5ffd5b823567ffffffffffffffff811115610f6c575f5ffd5b830160808186031215610f7d575f5ffd5b9150602083013567ffffffffffffffff811115610f98575f5ffd5b830160a08186031215610fa9575f5ffd5b809150509250929050565b5f5f5f5f60408587031215610fc7575f5ffd5b843567ffffffffffffffff811115610fdd575f5ffd5b610fe987828801610e3c565b909550935050602085013567ffffffffffffffff811115611008575f5ffd5b61101487828801610e3c565b95989497509550505050565b803573ffffffffffffffffffffffffffffffffffffffff81168114611043575f5ffd5b919050565b5f60208284031215611058575f5ffd5b61106182611020565b9392505050565b5f81518084528060208401602086015e5f6020828601015260207fffffffffffffffffffffffffffffffffffffffffffffffffffffffffffffffe0601f83011685010191505092915050565b606081525f6110c66060830186611068565b82810360208401526110d88186611068565b915050826040830152949350505050565b5f602082840312156110f9575f5ffd5b5035919050565b7f4e487b71000000000000000000000000000000000000000000000000000000005f52604160045260245ffd5b80357fff0000000000000000000000000000000000000000000000000000000000000081168114611043575f5ffd5b5f82601f83011261116b575f5ffd5b813567ffffffffffffffff81111561118557611185611100565b604051601f82017fffffffffffffffffffffffffffffffffffffffffffffffffffffffffffffffe0908116603f0116810167ffffffffffffffff811182821017156111d2576111d2611100565b6040528181528382016020018510156111e9575f5ffd5b816020850160208301375f918101602001919091529392505050565b5f60808284031215611215575f5ffd5b6040516080810167ffffffffffffffff8111828210171561123857611238611100565b60405290508061124783611020565b81526112556020840161112d565b6020820152604083013567ffffffffffffffff811115611273575f5ffd5b61127f8582860161115c565b604083015250606083013567ffffffffffffffff81111561129e575f5ffd5b6112aa8582860161115c565b6060830152505092915050565b5f602082840312156112c7575f5ffd5b813567ffffffffffffffff8111156112dd575f5ffd5b6112e984828501611205565b949350505050565b600181811c9082168061130557607f821691505b60208210810361133c577f4e487b71000000000000000000000000000000000000000000000000000000005f52602260045260245ffd5b50919050565b601f82111561138957805f5260205f20601f840160051c810160208510156113675750805b601f840160051c820191505b81811015611386575f8155600101611373565b50505b505050565b67ffffffffffffffff8311156113a6576113a6611100565b6113ba836113b483546112f1565b83611342565b5f601f84116001811461140a575f85156113d45750838201355b7fffffffffffffffffffffffffffffffffffffffffffffffffffffffffffffffff600387901b1c1916600186901b178355611386565b5f838152602081207fffffffffffffffffffffffffffffffffffffffffffffffffffffffffffffffe08716915b828110156114575786850135825560209485019460019092019101611437565b5086821015611492577fffffffffffffffffffffffffffffffffffffffffffffffffffffffffffffffff60f88860031b161c19848701351681555b505060018560011b0183555050505050565b7f4e487b71000000000000000000000000000000000000000000000000000000005f52603260045260245ffd5b5f82357fffffffffffffffffffffffffffffffffffffffffffffffffffffffffffffff81833603018112611503575f5ffd5b9190910192915050565b5f5f83357fffffffffffffffffffffffffffffffffffffffffffffffffffffffffffffffe1843603018112611540575f5ffd5b83018035915067ffffffffffffffff82111561155a575f5ffd5b602001915036819003821315610e7a575f5ffd5b81835281816020850137505f602082840101525f60207fffffffffffffffffffffffffffffffffffffffffffffffffffffffffffffffe0601f840116840101905092915050565b73ffffffffffffffffffffffffffffffffffffffff8916815273ffffffffffffffffffffffffffffffffffffffff881660208201528660408201528560608201528460808201528360a082015260e060c08201525f61161860e08301848661156e565b9a9950505050505050505050565b5f6116313683611205565b92915050565b7f4e487b71000000000000000000000000000000000000000000000000000000005f52601160045260245ffd5b808202811582820484141761163157611631611637565b5f826116ae577f4e487b71000000000000000000000000000000000000000000000000000000005f52601260045260245ffd5b500490565b5f602082840312156116c3575f5ffd5b81518015158114611061575f5ffd5b8181038181111561163157611631611637565b5f602082840312156116f5575f5ffd5b6110618261112d565b7fff0000000000000000000000000000000000000000000000000000000000000084168152604060208201525f61173960408301848661156e565b95945050505050565b85815273ffffffffffffffffffffffffffffffffffffffff85166020820152608060408201525f61177760808301858761156e565b82810360608401526117898185611068565b98975050505050505050565b815167ffffffffffffffff8111156117af576117af611100565b6117c3816117bd84546112f1565b84611342565b6020601f821160018114611814575f83156117de5750848201515b7fffffffffffffffffffffffffffffffffffffffffffffffffffffffffffffffff600385901b1c1916600184901b178455611386565b5f848152602081207fffffffffffffffffffffffffffffffffffffffffffffffffffffffffffffffe08516915b828110156118615787850151825560209485019460019092019101611841565b508482101561189d57868401517fffffffffffffffffffffffffffffffffffffffffffffffffffffffffffffffff600387901b60f8161c191681555b50505050600190811b01905550565b73ffffffffffffffffffffffffffffffffffffffff851681527fff0000000000000000000000000000000000000000000000000000000000000084166020820152608060408201525f6119026080830185611068565b82810360608401526119148185611068565b97965050505050505056fea264697066735822122022a621beabaa3b5e13a79a2991b34b3dee8dea91d3ccb31a25a57266c7c0615764736f6c634300081c0033","linkReferences":{}},"methodIdentifiers":{"ANNOUNCER()":"04e6b741","FEE_DENOMINATOR()":"d73792a9","USDC()":"89a30271","createProfile(bytes,bytes)":"a7608038","donate((address,bytes1,bytes,bytes),(address,uint256,uint256,uint256,bytes))":"7d767bc4","feeCollector()":"c415b95c","feePercent()":"7fd6f15c","hashDonation((address,bytes1,bytes,bytes))":"fae5b08f","multipleTransferAuthorized((address,address,uint256,bytes)[],uint256,uint256,bytes32)":"629153d4","owner()":"8da5cb5b","profilesOfAddress(address)":"b7cb3e45","renounceOwnership()":"715018a6","transferOwnership(address)":"f2fde38b","updateFeeCollector(address)":"d2c35ce8","updateFeePercent(uint256)":"f05c5fed","updateProfile(bytes)":"3354c373"},"id":35}