{"abi":[{"type":"constructor","inputs":[{"name":"_owner","type":"address","internalType":"address"},{"name":"_feePercent","type":"uint256","internalType":"uint256"},{"name":"_feeCollector","type":"address","internalType":"address"},{"name":"_announcer","type":"address","internalType":"address"}],"stateMutability":"nonpayable"},{"type":"function","name":"ANNOUNCER","inputs":[],"outputs":[{"name":"","type":"address","internalType":"contract IERC5564Announcer"}],"stateMutability":"view"},{"type":"function","name":"FEE_DENOMINATOR","inputs":[],"outputs":[{"name":"","type":"uint256","internalType":"uint256"}],"stateMutability":"view"},{"type":"function","name":"createProfile","inputs":[{"name":"_key","type":"bytes","internalType":"bytes"},{"name":"_profile","type":"bytes","internalType":"bytes"}],"outputs":[],"stateMutability":"nonpayable"},{"type":"function","name":"donate","inputs":[{"name":"_donation","type":"tuple","internalType":"struct IStealth.Donation","components":[{"name":"to","type":"address","internalType":"address"},{"name":"viewTag","type":"bytes1","internalType":"bytes1"},{"name":"ephemeralPublicKey","type":"bytes","internalType":"bytes"},{"name":"message","type":"bytes","internalType":"bytes"}]}],"outputs":[],"stateMutability":"payable"},{"type":"function","name":"feeCollector","inputs":[],"outputs":[{"name":"","type":"address","internalType":"address"}],"stateMutability":"view"},{"type":"function","name":"feePercent","inputs":[],"outputs":[{"name":"","type":"uint256","internalType":"uint256"}],"stateMutability":"view"},{"type":"function","name":"hashDonation","inputs":[{"name":"_donation","type":"tuple","internalType":"struct IStealth.Donation","components":[{"name":"to","type":"address","internalType":"address"},{"name":"viewTag","type":"bytes1","internalType":"bytes1"},{"name":"ephemeralPublicKey","type":"bytes","internalType":"bytes"},{"name":"message","type":"bytes","internalType":"bytes"}]}],"outputs":[{"name":"","type":"bytes32","internalType":"bytes32"}],"stateMutability":"pure"},{"type":"function","name":"owner","inputs":[],"outputs":[{"name":"","type":"address","internalType":"address"}],"stateMutability":"view"},{"type":"function","name":"profilesOfAddress","inputs":[{"name":"","type":"address","internalType":"address"}],"outputs":[{"name":"key","type":"bytes","internalType":"bytes"},{"name":"profile","type":"bytes","internalType":"bytes"},{"name":"createdAt","type":"uint256","internalType":"uint256"}],"stateMutability":"view"},{"type":"function","name":"renounceOwnership","inputs":[],"outputs":[],"stateMutability":"nonpayable"},{"type":"function","name":"transferOwnership","inputs":[{"name":"newOwner","type":"address","internalType":"address"}],"outputs":[],"stateMutability":"nonpayable"},{"type":"function","name":"updateFeeCollector","inputs":[{"name":"_feeCollector","type":"address","internalType":"address"}],"outputs":[],"stateMutability":"nonpayable"},{"type":"function","name":"updateFeePercent","inputs":[{"name":"_feePercent","type":"uint256","internalType":"uint256"}],"outputs":[],"stateMutability":"nonpayable"},{"type":"function","name":"updateProfile","inputs":[{"name":"_profile","type":"bytes","internalType":"bytes"}],"outputs":[],"stateMutability":"nonpayable"},{"type":"event","name":"FeeCollectorUpdated","inputs":[{"name":"newFeeCollector","type":"address","indexed":false,"internalType":"address"}],"anonymous":false},{"type":"event","name":"FeePercentUpdated","inputs":[{"name":"newFeePercent","type":"uint256","indexed":false,"internalType":"uint256"}],"anonymous":false},{"type":"event","name":"OwnershipTransferred","inputs":[{"name":"previousOwner","type":"address","indexed":true,"internalType":"address"},{"name":"newOwner","type":"address","indexed":true,"internalType":"address"}],"anonymous":false},{"type":"event","name":"ProfileUpdated","inputs":[{"name":"user","type":"address","indexed":true,"internalType":"address"}],"anonymous":false},{"type":"error","name":"OwnableInvalidOwner","inputs":[{"name":"owner","type":"address","internalType":"address"}]},{"type":"error","name":"OwnableUnauthorizedAccount","inputs":[{"name":"account","type":"address","internalType":"address"}]}],"bytecode":{"object":"0x60a060405234801561000f575f5ffd5b506040516116b43803806116b483398101604081905261002e916100fc565b836001600160a01b03811661005c57604051631e4fbdf760e01b81525f600482015260240160405180910390fd5b61006581610092565b50600192909255600280546001600160a01b0319166001600160a01b039283161790551660805250610146565b5f80546001600160a01b038381166001600160a01b0319831681178455604051919092169283917f8be0079c531659141344cd1fd0a4f28419497f9722a3daafe3b4186f6b6457e09190a35050565b80516001600160a01b03811681146100f7575f5ffd5b919050565b5f5f5f5f6080858703121561010f575f5ffd5b610118856100e1565b93506020850151925061012d604086016100e1565b915061013b606086016100e1565b905092959194509250565b6080516115506101645f395f818160ee01526105f201526115505ff3fe6080604052600436106100d9575f3560e01c8063b7cb3e451161007c578063d73792a911610057578063d73792a914610266578063f05c5fed1461027b578063f2fde38b1461029a578063fae5b08f146102b9575f5ffd5b8063b7cb3e45146101ed578063c415b95c1461021b578063d2c35ce814610247575f5ffd5b8063715018a6116100b7578063715018a61461016e5780637fd6f15c146101825780638da5cb5b146101a5578063a7608038146101ce575f5ffd5b806304e6b741146100dd5780633354c3731461013a5780634b4500891461015b575b5f5ffd5b3480156100e8575f5ffd5b506101107f000000000000000000000000000000000000000000000000000000000000000081565b60405173ffffffffffffffffffffffffffffffffffffffff90911681526020015b60405180910390f35b348015610145575f5ffd5b50610159610154366004610c47565b6102d8565b005b610159610169366004610c86565b610323565b348015610179575f5ffd5b506101596106c4565b34801561018d575f5ffd5b5061019760015481565b604051908152602001610131565b3480156101b0575f5ffd5b505f5473ffffffffffffffffffffffffffffffffffffffff16610110565b3480156101d9575f5ffd5b506101596101e8366004610cc4565b6106d7565b3480156101f8575f5ffd5b5061020c610207366004610d58565b61083d565b60405161013193929190610dbd565b348015610226575f5ffd5b506002546101109073ffffffffffffffffffffffffffffffffffffffff1681565b348015610252575f5ffd5b50610159610261366004610d58565b61096a565b348015610271575f5ffd5b5061019761271081565b348015610286575f5ffd5b50610159610295366004610df2565b6109ec565b3480156102a5575f5ffd5b506101596102b4366004610d58565b610a95565b3480156102c4575f5ffd5b506101976102d3366004610f37565b610af8565b335f9081526003602052604090206001016102f482848361108d565b5060405133907fbe4ec58a792f909e102ee3d745d0c3b34a4d437a54d903c4db098d31c556422f905f90a25050565b5f6103316020830183610d58565b73ffffffffffffffffffffffffffffffffffffffff16036103b3576040517f08c379a000000000000000000000000000000000000000000000000000000000815260206004820152600a60248201527f496e76616c696420746f0000000000000000000000000000000000000000000060448201526064015b60405180910390fd5b5f341161041c576040517f08c379a000000000000000000000000000000000000000000000000000000000815260206004820152600e60248201527f496e76616c696420616d6f756e7400000000000000000000000000000000000060448201526064016103aa565b5f6127106001543461042e91906111d0565b61043891906111ed565b6002546040519192505f9173ffffffffffffffffffffffffffffffffffffffff9091169083908381818185875af1925050503d805f8114610494576040519150601f19603f3d011682016040523d82523d5f602084013e610499565b606091505b5050905080610504576040517f08c379a000000000000000000000000000000000000000000000000000000000815260206004820152601260248201527f4661696c656420746f2073656e6420666565000000000000000000000000000060448201526064016103aa565b5f6105126020850185610d58565b73ffffffffffffffffffffffffffffffffffffffff166105328434611225565b6040515f81818185875af1925050503d805f811461056b576040519150601f19603f3d011682016040523d82523d5f602084013e610570565b606091505b50509050806105db576040517f08c379a000000000000000000000000000000000000000000000000000000000815260206004820152601260248201527f4661696c656420746f2073656e6420455448000000000000000000000000000060448201526064016103aa565b73ffffffffffffffffffffffffffffffffffffffff7f000000000000000000000000000000000000000000000000000000000000000016634d1f958360016106266020880188610d58565b6106336040890189611238565b61064360408b0160208c01611299565b61065060608c018c611238565b604051602001610662939291906112f9565b6040516020818303038152906040526040518663ffffffff1660e01b815260040161069195949392919061133d565b5f604051808303815f87803b1580156106a8575f5ffd5b505af11580156106ba573d5f5f3e3d5ffd5b5050505050505050565b6106cc610b3c565b6106d55f610b8e565b565b335f9081526003602052604090206002015415610750576040517f08c379a000000000000000000000000000000000000000000000000000000000815260206004820152601660248201527f50726f66696c6520616c7265616479206578697374730000000000000000000060448201526064016103aa565b604051806060016040528085858080601f0160208091040260200160405190810160405280939291908181526020018383808284375f92019190915250505090825250604080516020601f8601819004810282018101909252848152918101919085908590819084018382808284375f92018290525093855250504360209384015250338152600390915260409020815181906107ed9082611390565b50602082015160018201906108029082611390565b506040918201516002909101555133907fbe4ec58a792f909e102ee3d745d0c3b34a4d437a54d903c4db098d31c556422f905f90a250505050565b60036020525f908152604090208054819061085790610ff0565b80601f016020809104026020016040519081016040528092919081815260200182805461088390610ff0565b80156108ce5780601f106108a5576101008083540402835291602001916108ce565b820191905f5260205f20905b8154815290600101906020018083116108b157829003601f168201915b5050505050908060010180546108e390610ff0565b80601f016020809104026020016040519081016040528092919081815260200182805461090f90610ff0565b801561095a5780601f106109315761010080835404028352916020019161095a565b820191905f5260205f20905b81548152906001019060200180831161093d57829003601f168201915b5050505050908060020154905083565b610972610b3c565b600280547fffffffffffffffffffffffff00000000000000000000000000000000000000001673ffffffffffffffffffffffffffffffffffffffff83169081179091556040519081527fe5693914d19c789bdee50a362998c0bc8d035a835f9871da5d51152f0582c34f906020015b60405180910390a150565b6109f4610b3c565b612710811115610a60576040517f08c379a000000000000000000000000000000000000000000000000000000000815260206004820152600c60248201527f46656520746f6f2068696768000000000000000000000000000000000000000060448201526064016103aa565b60018190556040518181527f64d1887078a96d281ed60dd69ba75bfb6b5cd2cb4c2d2538b2eb7816a4c646ea906020016109e1565b610a9d610b3c565b73ffffffffffffffffffffffffffffffffffffffff8116610aec576040517f1e4fbdf70000000000000000000000000000000000000000000000000000000081525f60048201526024016103aa565b610af581610b8e565b50565b5f815f0151826020015183604001518460600151604051602001610b1f94939291906114a7565b604051602081830303815290604052805190602001209050919050565b5f5473ffffffffffffffffffffffffffffffffffffffff1633146106d5576040517f118cdaa70000000000000000000000000000000000000000000000000000000081523360048201526024016103aa565b5f805473ffffffffffffffffffffffffffffffffffffffff8381167fffffffffffffffffffffffff0000000000000000000000000000000000000000831681178455604051919092169283917f8be0079c531659141344cd1fd0a4f28419497f9722a3daafe3b4186f6b6457e09190a35050565b5f5f83601f840112610c12575f5ffd5b50813567ffffffffffffffff811115610c29575f5ffd5b602083019150836020828501011115610c40575f5ffd5b9250929050565b5f5f60208385031215610c58575f5ffd5b823567ffffffffffffffff811115610c6e575f5ffd5b610c7a85828601610c02565b90969095509350505050565b5f60208284031215610c96575f5ffd5b813567ffffffffffffffff811115610cac575f5ffd5b820160808185031215610cbd575f5ffd5b9392505050565b5f5f5f5f60408587031215610cd7575f5ffd5b843567ffffffffffffffff811115610ced575f5ffd5b610cf987828801610c02565b909550935050602085013567ffffffffffffffff811115610d18575f5ffd5b610d2487828801610c02565b95989497509550505050565b803573ffffffffffffffffffffffffffffffffffffffff81168114610d53575f5ffd5b919050565b5f60208284031215610d68575f5ffd5b610cbd82610d30565b5f81518084528060208401602086015e5f6020828601015260207fffffffffffffffffffffffffffffffffffffffffffffffffffffffffffffffe0601f83011685010191505092915050565b606081525f610dcf6060830186610d71565b8281036020840152610de18186610d71565b915050826040830152949350505050565b5f60208284031215610e02575f5ffd5b5035919050565b7f4e487b71000000000000000000000000000000000000000000000000000000005f52604160045260245ffd5b6040516080810167ffffffffffffffff81118282101715610e5957610e59610e09565b60405290565b80357fff0000000000000000000000000000000000000000000000000000000000000081168114610d53575f5ffd5b5f82601f830112610e9d575f5ffd5b813567ffffffffffffffff811115610eb757610eb7610e09565b604051601f82017fffffffffffffffffffffffffffffffffffffffffffffffffffffffffffffffe0908116603f0116810167ffffffffffffffff81118282101715610f0457610f04610e09565b604052818152838201602001851015610f1b575f5ffd5b816020850160208301375f918101602001919091529392505050565b5f60208284031215610f47575f5ffd5b813567ffffffffffffffff811115610f5d575f5ffd5b820160808185031215610f6e575f5ffd5b610f76610e36565b610f7f82610d30565b8152610f8d60208301610e5f565b6020820152604082013567ffffffffffffffff811115610fab575f5ffd5b610fb786828501610e8e565b604083015250606082013567ffffffffffffffff811115610fd6575f5ffd5b610fe286828501610e8e565b606083015250949350505050565b600181811c9082168061100457607f821691505b60208210810361103b577f4e487b71000000000000000000000000000000000000000000000000000000005f52602260045260245ffd5b50919050565b601f82111561108857805f5260205f20601f840160051c810160208510156110665750805b601f840160051c820191505b81811015611085575f8155600101611072565b50505b505050565b67ffffffffffffffff8311156110a5576110a5610e09565b6110b9836110b38354610ff0565b83611041565b5f601f841160018114611109575f85156110d35750838201355b7fffffffffffffffffffffffffffffffffffffffffffffffffffffffffffffffff600387901b1c1916600186901b178355611085565b5f838152602081207fffffffffffffffffffffffffffffffffffffffffffffffffffffffffffffffe08716915b828110156111565786850135825560209485019460019092019101611136565b5086821015611191577fffffffffffffffffffffffffffffffffffffffffffffffffffffffffffffffff60f88860031b161c19848701351681555b505060018560011b0183555050505050565b7f4e487b71000000000000000000000000000000000000000000000000000000005f52601160045260245ffd5b80820281158282048414176111e7576111e76111a3565b92915050565b5f82611220577f4e487b71000000000000000000000000000000000000000000000000000000005f52601260045260245ffd5b500490565b818103818111156111e7576111e76111a3565b5f5f83357fffffffffffffffffffffffffffffffffffffffffffffffffffffffffffffffe184360301811261126b575f5ffd5b83018035915067ffffffffffffffff821115611285575f5ffd5b602001915036819003821315610c40575f5ffd5b5f602082840312156112a9575f5ffd5b610cbd82610e5f565b81835281816020850137505f602082840101525f60207fffffffffffffffffffffffffffffffffffffffffffffffffffffffffffffffe0601f840116840101905092915050565b7fff0000000000000000000000000000000000000000000000000000000000000084168152604060208201525f6113346040830184866112b2565b95945050505050565b85815273ffffffffffffffffffffffffffffffffffffffff85166020820152608060408201525f6113726080830185876112b2565b82810360608401526113848185610d71565b98975050505050505050565b815167ffffffffffffffff8111156113aa576113aa610e09565b6113be816113b88454610ff0565b84611041565b6020601f82116001811461140f575f83156113d95750848201515b7fffffffffffffffffffffffffffffffffffffffffffffffffffffffffffffffff600385901b1c1916600184901b178455611085565b5f848152602081207fffffffffffffffffffffffffffffffffffffffffffffffffffffffffffffffe08516915b8281101561145c578785015182556020948501946001909201910161143c565b508482101561149857868401517fffffffffffffffffffffffffffffffffffffffffffffffffffffffffffffffff600387901b60f8161c191681555b50505050600190811b01905550565b73ffffffffffffffffffffffffffffffffffffffff851681527fff0000000000000000000000000000000000000000000000000000000000000084166020820152608060408201525f6114fd6080830185610d71565b828103606084015261150f8185610d71565b97965050505050505056fea2646970667358221220f9673348760bb9c9993bf0e0da64c98b5e8276bf80e99e9e3bc3ea89a08f095b64736f6c634300081c0033","linkReferences":{}},"methodIdentifiers":{"ANNOUNCER()":"04e6b741","FEE_DENOMINATOR()":"d73792a9","createProfile(bytes,bytes)":"a7608038","donate((address,bytes1,bytes,bytes))":"4b450089","feeCollector()":"c415b95c","feePercent()":"7fd6f15c","hashDonation((address,bytes1,bytes,bytes))":"fae5b08f","owner()":"8da5cb5b","profilesOfAddress(address)":"b7cb3e45","renounceOwnership()":"715018a6","transferOwnership(address)":"f2fde38b","updateFeeCollector(address)":"d2c35ce8","updateFeePercent(uint256)":"f05c5fed","updateProfile(bytes)":"3354c373"},"id":18}