{"abi":[{"type":"constructor","inputs":[{"name":"_owner","type":"address","internalType":"address"},{"name":"_feePercent","type":"uint256","internalType":"uint256"},{"name":"_feeCollector","type":"address","internalType":"address"},{"name":"_usdc","type":"address","internalType":"address"}],"stateMutability":"nonpayable"},{"type":"function","name":"FEE_DENOMINATOR","inputs":[],"outputs":[{"name":"","type":"uint256","internalType":"uint256"}],"stateMutability":"view"},{"type":"function","name":"TYPEHASH","inputs":[],"outputs":[{"name":"","type":"bytes32","internalType":"bytes32"}],"stateMutability":"view"},{"type":"function","name":"USDC","inputs":[],"outputs":[{"name":"","type":"address","internalType":"contract IUSDC"}],"stateMutability":"view"},{"type":"function","name":"authorizedKeys","inputs":[{"name":"","type":"address","internalType":"address"}],"outputs":[{"name":"","type":"bytes","internalType":"bytes"}],"stateMutability":"view"},{"type":"function","name":"authorizers","inputs":[{"name":"","type":"uint256","internalType":"uint256"}],"outputs":[{"name":"","type":"address","internalType":"address"}],"stateMutability":"view"},{"type":"function","name":"donate","inputs":[{"name":"_donation","type":"tuple","internalType":"struct Fuelme.Donation","components":[{"name":"to","type":"address","internalType":"address"},{"name":"viewTag","type":"uint16","internalType":"uint16"},{"name":"ephemeralPublicKey","type":"bytes","internalType":"bytes"},{"name":"message","type":"bytes","internalType":"bytes"}]},{"name":"_transfer","type":"tuple","internalType":"struct Fuelme.TranferAuthorized","components":[{"name":"from","type":"address","internalType":"address"},{"name":"value","type":"uint256","internalType":"uint256"},{"name":"validAfter","type":"uint256","internalType":"uint256"},{"name":"validBefore","type":"uint256","internalType":"uint256"},{"name":"signature","type":"bytes","internalType":"bytes"}]}],"outputs":[],"stateMutability":"payable"},{"type":"function","name":"eip712Domain","inputs":[],"outputs":[{"name":"fields","type":"bytes1","internalType":"bytes1"},{"name":"name","type":"string","internalType":"string"},{"name":"version","type":"string","internalType":"string"},{"name":"chainId","type":"uint256","internalType":"uint256"},{"name":"verifyingContract","type":"address","internalType":"address"},{"name":"salt","type":"bytes32","internalType":"bytes32"},{"name":"extensions","type":"uint256[]","internalType":"uint256[]"}],"stateMutability":"view"},{"type":"function","name":"feeCollector","inputs":[],"outputs":[{"name":"","type":"address","internalType":"address"}],"stateMutability":"view"},{"type":"function","name":"feePercent","inputs":[],"outputs":[{"name":"","type":"uint256","internalType":"uint256"}],"stateMutability":"view"},{"type":"function","name":"getAuthorizers","inputs":[{"name":"_startIndex","type":"uint256","internalType":"uint256"},{"name":"_length","type":"uint256","internalType":"uint256"}],"outputs":[{"name":"addresses","type":"address[]","internalType":"address[]"},{"name":"keyOfUsers","type":"bytes[]","internalType":"bytes[]"}],"stateMutability":"view"},{"type":"function","name":"getAuthorizersCount","inputs":[],"outputs":[{"name":"","type":"uint256","internalType":"uint256"}],"stateMutability":"view"},{"type":"function","name":"getProfile","inputs":[{"name":"_username","type":"bytes","internalType":"bytes"}],"outputs":[{"name":"","type":"bytes","internalType":"bytes"},{"name":"","type":"bytes","internalType":"bytes"}],"stateMutability":"view"},{"type":"function","name":"getProfileByAddress","inputs":[{"name":"_authorizer","type":"address","internalType":"address"}],"outputs":[{"name":"","type":"bytes","internalType":"bytes"},{"name":"","type":"bytes","internalType":"bytes"},{"name":"","type":"bytes","internalType":"bytes"}],"stateMutability":"view"},{"type":"function","name":"hashDonation","inputs":[{"name":"_donation","type":"tuple","internalType":"struct Fuelme.Donation","components":[{"name":"to","type":"address","internalType":"address"},{"name":"viewTag","type":"uint16","internalType":"uint16"},{"name":"ephemeralPublicKey","type":"bytes","internalType":"bytes"},{"name":"message","type":"bytes","internalType":"bytes"}]}],"outputs":[{"name":"","type":"bytes32","internalType":"bytes32"}],"stateMutability":"pure"},{"type":"function","name":"keys","inputs":[{"name":"","type":"bytes","internalType":"bytes"}],"outputs":[{"name":"","type":"bytes","internalType":"bytes"}],"stateMutability":"view"},{"type":"function","name":"multipleTransferAuthorized","inputs":[{"name":"_transfers","type":"tuple[]","internalType":"struct Fuelme.FullTranferAuthorized[]","components":[{"name":"from","type":"address","internalType":"address"},{"name":"to","type":"address","internalType":"address"},{"name":"value","type":"uint256","internalType":"uint256"},{"name":"validAfter","type":"uint256","internalType":"uint256"},{"name":"validBefore","type":"uint256","internalType":"uint256"},{"name":"nonce","type":"bytes32","internalType":"bytes32"},{"name":"signature","type":"bytes","internalType":"bytes"}]}],"outputs":[],"stateMutability":"nonpayable"},{"type":"function","name":"nonceUsed","inputs":[{"name":"","type":"address","internalType":"address"},{"name":"","type":"uint256","internalType":"uint256"}],"outputs":[{"name":"","type":"bool","internalType":"bool"}],"stateMutability":"view"},{"type":"function","name":"owner","inputs":[],"outputs":[{"name":"","type":"address","internalType":"address"}],"stateMutability":"view"},{"type":"function","name":"profiles","inputs":[{"name":"","type":"bytes","internalType":"bytes"}],"outputs":[{"name":"","type":"bytes","internalType":"bytes"}],"stateMutability":"view"},{"type":"function","name":"renounceOwnership","inputs":[],"outputs":[],"stateMutability":"nonpayable"},{"type":"function","name":"transferOwnership","inputs":[{"name":"newOwner","type":"address","internalType":"address"}],"outputs":[],"stateMutability":"nonpayable"},{"type":"function","name":"updateFeeCollector","inputs":[{"name":"_feeCollector","type":"address","internalType":"address"}],"outputs":[],"stateMutability":"nonpayable"},{"type":"function","name":"updateFeePercent","inputs":[{"name":"_feePercent","type":"uint256","internalType":"uint256"}],"outputs":[],"stateMutability":"nonpayable"},{"type":"function","name":"updateProfile","inputs":[{"name":"_username","type":"bytes","internalType":"bytes"},{"name":"_key","type":"bytes","internalType":"bytes"},{"name":"_profile","type":"bytes","internalType":"bytes"},{"name":"_nonce","type":"uint256","internalType":"uint256"},{"name":"_signature","type":"bytes","internalType":"bytes"}],"outputs":[],"stateMutability":"nonpayable"},{"type":"event","name":"Announcement","inputs":[{"name":"stealthAddress","type":"address","indexed":true,"internalType":"address"},{"name":"viewTag","type":"uint16","indexed":true,"internalType":"uint16"},{"name":"ephemeralPublicKey","type":"bytes","indexed":false,"internalType":"bytes"},{"name":"amount","type":"uint256","indexed":false,"internalType":"uint256"},{"name":"message","type":"bytes","indexed":false,"internalType":"bytes"}],"anonymous":false},{"type":"event","name":"EIP712DomainChanged","inputs":[],"anonymous":false},{"type":"event","name":"FeeCollectorUpdated","inputs":[{"name":"newFeeCollector","type":"address","indexed":false,"internalType":"address"}],"anonymous":false},{"type":"event","name":"FeePercentUpdated","inputs":[{"name":"newFeePercent","type":"uint256","indexed":false,"internalType":"uint256"}],"anonymous":false},{"type":"event","name":"OwnershipTransferred","inputs":[{"name":"previousOwner","type":"address","indexed":true,"internalType":"address"},{"name":"newOwner","type":"address","indexed":true,"internalType":"address"}],"anonymous":false},{"type":"event","name":"ProfileUpdated","inputs":[{"name":"username","type":"bytes","indexed":false,"internalType":"bytes"}],"anonymous":false},{"type":"error","name":"ECDSAInvalidSignature","inputs":[]},{"type":"error","name":"ECDSAInvalidSignatureLength","inputs":[{"name":"length","type":"uint256","internalType":"uint256"}]},{"type":"error","name":"ECDSAInvalidSignatureS","inputs":[{"name":"s","type":"bytes32","internalType":"bytes32"}]},{"type":"error","name":"InvalidShortString","inputs":[]},{"type":"error","name":"OwnableInvalidOwner","inputs":[{"name":"owner","type":"address","internalType":"address"}]},{"type":"error","name":"OwnableUnauthorizedAccount","inputs":[{"name":"account","type":"address","internalType":"address"}]},{"type":"error","name":"StringTooLong","inputs":[{"name":"str","type":"string","internalType":"string"}]}],"bytecode":{"object":"0x610180604052348015610010575f5ffd5b50604051612fe6380380612fe683398101604081905261002f91610253565b60408051808201825260068152654675656c4d6560d01b602080830191909152825180840190935260018352603160f81b9083015290856001600160a01b03811661009457604051631e4fbdf760e01b81525f60048201526024015b60405180910390fd5b61009d8161017a565b506100a98260016101c9565b610120526100b88160026101c9565b61014052815160208084019190912060e052815190820120610100524660a05261014460e05161010051604080517f8b73c3c69bb8fe3d512ecc4cf759cc79239f7b179b0ffacaa9a75d522b39400f60208201529081019290925260608201524660808201523060a08201525f9060c00160405160208183030381529060405280519060200120905090565b60805250503060c052600392909255600480546001600160a01b0319166001600160a01b03928316179055166101605250610447565b5f80546001600160a01b038381166001600160a01b0319831681178455604051919092169283917f8be0079c531659141344cd1fd0a4f28419497f9722a3daafe3b4186f6b6457e09190a35050565b5f6020835110156101e4576101dd836101fb565b90506101f5565b816101ef8482610335565b5060ff90505b92915050565b5f5f829050601f81511115610225578260405163305a27a960e01b815260040161008b91906103ef565b805161023082610424565b179392505050565b80516001600160a01b038116811461024e575f5ffd5b919050565b5f5f5f5f60808587031215610266575f5ffd5b61026f85610238565b93506020850151925061028460408601610238565b915061029260608601610238565b905092959194509250565b634e487b7160e01b5f52604160045260245ffd5b600181811c908216806102c557607f821691505b6020821081036102e357634e487b7160e01b5f52602260045260245ffd5b50919050565b601f82111561033057805f5260205f20601f840160051c8101602085101561030e5750805b601f840160051c820191505b8181101561032d575f815560010161031a565b50505b505050565b81516001600160401b0381111561034e5761034e61029d565b6103628161035c84546102b1565b846102e9565b6020601f821160018114610394575f831561037d5750848201515b5f19600385901b1c1916600184901b17845561032d565b5f84815260208120601f198516915b828110156103c357878501518255602094850194600190920191016103a3565b50848210156103e057868401515f19600387901b60f8161c191681555b50505050600190811b01905550565b602081525f82518060208401528060208501604085015e5f604082850101526040601f19601f83011684010191505092915050565b805160208083015191908110156102e3575f1960209190910360031b1b16919050565b60805160a05160c05160e05161010051610120516101405161016051612b286104be5f395f818161032b01528181610b3001528181610c2001528181610ca4015261120601525f61189d01525f61186b01525f611bbb01525f611b9301525f611aee01525f611b1801525f611b420152612b285ff3fe608060405260043610610183575f3560e01c80638ea651a7116100d1578063d73792a91161007c578063f05c5fed11610057578063f05c5fed146104bf578063f2fde38b146104de578063fb088964146104fd575f5ffd5b8063d73792a91461045e578063dc7becbc14610473578063dd1c9d4c146104a0575f5ffd5b8063a4353403116100ac578063a4353403146103f4578063c415b95c14610413578063d2c35ce81461043f575f5ffd5b80638ea651a71461039557806394575c86146103c2578063961f0a2e146103d5575f5ffd5b8063715018a61161013157806389a302711161010c57806389a302711461031a5780638d8cd6be1461034d5780638da5cb5b1461036c575f5ffd5b8063715018a6146102c85780637fd6f15c146102de57806384b0196e146102f3575f5ffd5b80633b639e6f116101615780633b639e6f146102455780634cd6959c146102865780636f1dd26c146102b4575f5ffd5b806311f6649b146101875780631647795e146101d05780633a0daf3714610219575b5f5ffd5b348015610192575f5ffd5b506101a66101a1366004611ecb565b61051c565b60405173ffffffffffffffffffffffffffffffffffffffff90911681526020015b60405180910390f35b3480156101db575f5ffd5b506102096101ea366004611f0a565b600960209081525f928352604080842090915290825290205460ff1681565b60405190151581526020016101c7565b348015610224575f5ffd5b50610238610233366004611f32565b610551565b6040516101c79190611f9e565b348015610250575f5ffd5b506102787f1fd37cfb22385bce6b494d2eaa732711f05d5cabdfcc6ba8f4c387b768cf0df681565b6040519081526020016101c7565b348015610291575f5ffd5b506102a56102a0366004611f32565b6105e8565b6040516101c793929190611fb0565b3480156102bf575f5ffd5b50600554610278565b3480156102d3575f5ffd5b506102dc6107fb565b005b3480156102e9575f5ffd5b5061027860035481565b3480156102fe575f5ffd5b5061030761080e565b6040516101c79796959493929190611ff2565b348015610325575f5ffd5b506101a67f000000000000000000000000000000000000000000000000000000000000000081565b348015610358575f5ffd5b50610238610367366004612187565b61086c565b348015610377575f5ffd5b505f5473ffffffffffffffffffffffffffffffffffffffff166101a6565b3480156103a0575f5ffd5b506103b46103af366004612187565b610890565b6040516101c79291906121c1565b6102dc6103d03660046121ee565b6109ec565b3480156103e0575f5ffd5b506102386103ef366004612187565b610e0e565b3480156103ff575f5ffd5b5061027861040e366004612320565b610e32565b34801561041e575f5ffd5b506004546101a69073ffffffffffffffffffffffffffffffffffffffff1681565b34801561044a575f5ffd5b506102dc610459366004611f32565b610e76565b348015610469575f5ffd5b5061027861271081565b34801561047e575f5ffd5b5061049261048d366004612352565b610ef8565b6040516101c7929190612372565b3480156104ab575f5ffd5b506102dc6104ba366004612446565b6111be565b3480156104ca575f5ffd5b506102dc6104d9366004611ecb565b6112cb565b3480156104e9575f5ffd5b506102dc6104f8366004611f32565b611374565b348015610508575f5ffd5b506102dc6105173660046124b7565b6113d7565b6005818154811061052b575f80fd5b5f9182526020909120015473ffffffffffffffffffffffffffffffffffffffff16905081565b60086020525f90815260409020805461056990612579565b80601f016020809104026020016040519081016040528092919081815260200182805461059590612579565b80156105e05780601f106105b7576101008083540402835291602001916105e0565b820191905f5260205f20905b8154815290600101906020018083116105c357829003601f168201915b505050505081565b73ffffffffffffffffffffffffffffffffffffffff81165f90815260086020526040812080546060928392839261061e90612579565b80601f016020809104026020016040519081016040528092919081815260200182805461064a90612579565b80156106955780601f1061066c57610100808354040283529160200191610695565b820191905f5260205f20905b81548152906001019060200180831161067857829003601f168201915b50505050509050806006826040516106ad91906125ca565b90815260200160405180910390206007836040516106cb91906125ca565b90815260200160405180910390208180546106e590612579565b80601f016020809104026020016040519081016040528092919081815260200182805461071190612579565b801561075c5780601f106107335761010080835404028352916020019161075c565b820191905f5260205f20905b81548152906001019060200180831161073f57829003601f168201915b5050505050915080805461076f90612579565b80601f016020809104026020016040519081016040528092919081815260200182805461079b90612579565b80156107e65780601f106107bd576101008083540402835291602001916107e6565b820191905f5260205f20905b8154815290600101906020018083116107c957829003601f168201915b50505050509050935093509350509193909250565b61080361179e565b61080c5f6117f0565b565b5f6060805f5f5f606061081f611864565b610827611896565b604080515f808252602082019092527f0f000000000000000000000000000000000000000000000000000000000000009b939a50919850469750309650945092509050565b80516020818301810180516006825292820191909301209152805461056990612579565b6060806006836040516108a391906125ca565b90815260200160405180910390206007846040516108c191906125ca565b90815260200160405180910390208180546108db90612579565b80601f016020809104026020016040519081016040528092919081815260200182805461090790612579565b80156109525780601f1061092957610100808354040283529160200191610952565b820191905f5260205f20905b81548152906001019060200180831161093557829003601f168201915b5050505050915080805461096590612579565b80601f016020809104026020016040519081016040528092919081815260200182805461099190612579565b80156109dc5780601f106109b3576101008083540402835291602001916109dc565b820191905f5260205f20905b8154815290600101906020018083116109bf57829003601f168201915b5050505050905091509150915091565b5f6109f961040e846125e0565b9050602080830135905f90610a1090860186611f32565b73ffffffffffffffffffffffffffffffffffffffff1603610a92576040517f08c379a000000000000000000000000000000000000000000000000000000000815260206004820152600a60248201527f496e76616c696420746f0000000000000000000000000000000000000000000060448201526064015b60405180910390fd5b5f8111610afb576040517f08c379a000000000000000000000000000000000000000000000000000000000815260206004820152600e60248201527f496e76616c696420616d6f756e740000000000000000000000000000000000006044820152606401610a89565b5f61271060035483610b0d9190612618565b610b17919061262f565b905073ffffffffffffffffffffffffffffffffffffffff7f0000000000000000000000000000000000000000000000000000000000000000166388b7ab63610b626020870187611f32565b306020880135604089013560608a013589610b8060808d018d612667565b6040518963ffffffff1660e01b8152600401610ba398979695949392919061270f565b5f604051808303815f87803b158015610bba575f5ffd5b505af1158015610bcc573d5f5f3e3d5ffd5b5050600480546040517fa9059cbb00000000000000000000000000000000000000000000000000000000815273ffffffffffffffffffffffffffffffffffffffff91821692810192909252602482018590527f000000000000000000000000000000000000000000000000000000000000000016925063a9059cbb91506044016020604051808303815f875af1158015610c68573d5f5f3e3d5ffd5b505050506040513d601f19601f82011682018060405250810190610c8c9190612780565b5073ffffffffffffffffffffffffffffffffffffffff7f00000000000000000000000000000000000000000000000000000000000000001663a9059cbb610cd66020880188611f32565b610ce0848661279f565b6040517fffffffff0000000000000000000000000000000000000000000000000000000060e085901b16815273ffffffffffffffffffffffffffffffffffffffff909216600483015260248201526044016020604051808303815f875af1158015610d4d573d5f5f3e3d5ffd5b505050506040513d601f19601f82011682018060405250810190610d719190612780565b50610d8260408601602087016127b2565b61ffff16610d936020870187611f32565b73ffffffffffffffffffffffffffffffffffffffff167f14c6b30f95da52d86952583e78f232086f8d99719b7e278036989f9251520511610dd76040890189612667565b610de1868861279f565b610dee60608c018c612667565b604051610dff9594939291906127cb565b60405180910390a35050505050565b80516020818301810180516007825292820191909301209152805461056990612579565b5f815f0151826020015183604001518460600151604051602001610e599493929190612803565b604051602081830303815290604052805190602001209050919050565b610e7e61179e565b600480547fffffffffffffffffffffffff00000000000000000000000000000000000000001673ffffffffffffffffffffffffffffffffffffffff83169081179091556040519081527fe5693914d19c789bdee50a362998c0bc8d035a835f9871da5d51152f0582c34f906020015b60405180910390a150565b6005546060908190808510610f4457604080515f80825260208201818152828401909352909190610f39565b6060815260200190600190039081610f245790505b5092509250506111b7565b5f610f4f8587612858565b905081811115610f5c5750805b610f66868261279f565b94508467ffffffffffffffff811115610f8157610f816120b1565b604051908082528060200260200182016040528015610faa578160200160208202803683370190505b5093505f5b8581101561103a576005610fc38289612858565b81548110610fd357610fd361286b565b905f5260205f20015f9054906101000a900473ffffffffffffffffffffffffffffffffffffffff1685828151811061100d5761100d61286b565b73ffffffffffffffffffffffffffffffffffffffff90921660209283029190910190910152600101610faf565b508467ffffffffffffffff811115611054576110546120b1565b60405190808252806020026020018201604052801561108757816020015b60608152602001906001900390816110725790505b5092505f5b858110156111b357600660085f8784815181106110ab576110ab61286b565b602002602001015173ffffffffffffffffffffffffffffffffffffffff1673ffffffffffffffffffffffffffffffffffffffff1681526020019081526020015f206040516110f99190612898565b9081526020016040518091039020805461111290612579565b80601f016020809104026020016040519081016040528092919081815260200182805461113e90612579565b80156111895780601f1061116057610100808354040283529160200191611189565b820191905f5260205f20905b81548152906001019060200180831161116c57829003601f168201915b50505050508482815181106111a0576111a061286b565b602090810291909101015260010161108c565b5050505b9250929050565b5f5b818110156112c657368383838181106111db576111db61286b565b90506020028101906111ed9190612927565b905073ffffffffffffffffffffffffffffffffffffffff7f00000000000000000000000000000000000000000000000000000000000000001663cf0929956112386020840184611f32565b6112486040850160208601611f32565b60408501356060860135608087013560a088013561126960c08a018a612667565b6040518963ffffffff1660e01b815260040161128c98979695949392919061270f565b5f604051808303815f87803b1580156112a3575f5ffd5b505af11580156112b5573d5f5f3e3d5ffd5b5050600190930192506111c0915050565b505050565b6112d361179e565b61271081111561133f576040517f08c379a000000000000000000000000000000000000000000000000000000000815260206004820152600c60248201527f46656520746f6f206869676800000000000000000000000000000000000000006044820152606401610a89565b60038190556040518181527f64d1887078a96d281ed60dd69ba75bfb6b5cd2cb4c2d2538b2eb7816a4c646ea90602001610eed565b61137c61179e565b73ffffffffffffffffffffffffffffffffffffffff81166113cb576040517f1e4fbdf70000000000000000000000000000000000000000000000000000000081525f6004820152602401610a89565b6113d4816117f0565b50565b5f855111611441576040517f08c379a000000000000000000000000000000000000000000000000000000000815260206004820152601060248201527f496e76616c696420757365726e616d65000000000000000000000000000000006044820152606401610a89565b5f7f1fd37cfb22385bce6b494d2eaa732711f05d5cabdfcc6ba8f4c387b768cf0df6858051906020012085805190602001208560405160200161149d949392919093845260208401929092526040830152606082015260800190565b6040516020818303038152906040528051906020012090505f6114bf826118c3565b90505f6114cc8285611910565b90506114d88186611938565b6007886040516114e891906125ca565b9081526020016040518091039020805461150190612579565b90505f036116705773ffffffffffffffffffffffffffffffffffffffff81165f908152600860205260409020805461153890612579565b1590506115a1576040517f08c379a000000000000000000000000000000000000000000000000000000000815260206004820152601260248201527f416c7265616479207265676973746572656400000000000000000000000000006044820152606401610a89565b866006896040516115b291906125ca565b908152602001604051809103902090816115cc91906129ae565b5073ffffffffffffffffffffffffffffffffffffffff81165f9081526008602052604090206115fb89826129ae565b50600580546001810182555f919091527f036b6384b5eca791c62761152d0c79bb0604c104a5fb6f4eb0703f3154bb3db00180547fffffffffffffffffffffffff00000000000000000000000000000000000000001673ffffffffffffffffffffffffffffffffffffffff8316179055611731565b878051906020012060085f8373ffffffffffffffffffffffffffffffffffffffff1673ffffffffffffffffffffffffffffffffffffffff1681526020019081526020015f206040516116c29190612898565b604051809103902014611731576040517f08c379a000000000000000000000000000000000000000000000000000000000815260206004820152601860248201527f4e6f7420617574686f72697a656420746f2075706461746500000000000000006044820152606401610a89565b8560078960405161174291906125ca565b9081526020016040518091039020908161175c91906129ae565b507f45dfda2e17e3e4f2e5701a9775fabca6f64e67315a07b6af74bc29a9f31059568860405161178c9190611f9e565b60405180910390a15050505050505050565b5f5473ffffffffffffffffffffffffffffffffffffffff16331461080c576040517f118cdaa7000000000000000000000000000000000000000000000000000000008152336004820152602401610a89565b5f805473ffffffffffffffffffffffffffffffffffffffff8381167fffffffffffffffffffffffff0000000000000000000000000000000000000000831681178455604051919092169283917f8be0079c531659141344cd1fd0a4f28419497f9722a3daafe3b4186f6b6457e09190a35050565b60606118917f00000000000000000000000000000000000000000000000000000000000000006001611a2c565b905090565b60606118917f00000000000000000000000000000000000000000000000000000000000000006002611a2c565b5f61190a6118cf611ad5565b836040517f19010000000000000000000000000000000000000000000000000000000000008152600281019290925260228201526042902090565b92915050565b5f5f5f5f61191e8686611c0b565b92509250925061192e8282611c54565b5090949350505050565b73ffffffffffffffffffffffffffffffffffffffff82165f90815260096020908152604080832084845290915290205460ff16156119d2576040517f08c379a000000000000000000000000000000000000000000000000000000000815260206004820152600a60248201527f4e6f6e63652075736564000000000000000000000000000000000000000000006044820152606401610a89565b73ffffffffffffffffffffffffffffffffffffffff9091165f9081526009602090815260408083209383529290522080547fffffffffffffffffffffffffffffffffffffffffffffffffffffffffffffff00166001179055565b606060ff8314611a4657611a3f83611d5b565b905061190a565b818054611a5290612579565b80601f0160208091040260200160405190810160405280929190818152602001828054611a7e90612579565b8015611ac95780601f10611aa057610100808354040283529160200191611ac9565b820191905f5260205f20905b815481529060010190602001808311611aac57829003601f168201915b5050505050905061190a565b5f3073ffffffffffffffffffffffffffffffffffffffff7f000000000000000000000000000000000000000000000000000000000000000016148015611b3a57507f000000000000000000000000000000000000000000000000000000000000000046145b15611b6457507f000000000000000000000000000000000000000000000000000000000000000090565b611891604080517f8b73c3c69bb8fe3d512ecc4cf759cc79239f7b179b0ffacaa9a75d522b39400f60208201527f0000000000000000000000000000000000000000000000000000000000000000918101919091527f000000000000000000000000000000000000000000000000000000000000000060608201524660808201523060a08201525f9060c00160405160208183030381529060405280519060200120905090565b5f5f5f8351604103611c42576020840151604085015160608601515f1a611c3488828585611d98565b955095509550505050611c4d565b505081515f91506002905b9250925092565b5f826003811115611c6757611c67612ac5565b03611c70575050565b6001826003811115611c8457611c84612ac5565b03611cbb576040517ff645eedf00000000000000000000000000000000000000000000000000000000815260040160405180910390fd5b6002826003811115611ccf57611ccf612ac5565b03611d09576040517ffce698f700000000000000000000000000000000000000000000000000000000815260048101829052602401610a89565b6003826003811115611d1d57611d1d612ac5565b03611d57576040517fd78bce0c00000000000000000000000000000000000000000000000000000000815260048101829052602401610a89565b5050565b60605f611d6783611e8b565b6040805160208082528183019092529192505f91906020820181803683375050509182525060208101929092525090565b5f80807f7fffffffffffffffffffffffffffffff5d576e7357a4501ddfe92f46681b20a0841115611dd157505f91506003905082611e81565b604080515f808252602082018084528a905260ff891692820192909252606081018790526080810186905260019060a0016020604051602081039080840390855afa158015611e22573d5f5f3e3d5ffd5b50506040517fffffffffffffffffffffffffffffffffffffffffffffffffffffffffffffffe0015191505073ffffffffffffffffffffffffffffffffffffffff8116611e7857505f925060019150829050611e81565b92505f91508190505b9450945094915050565b5f60ff8216601f81111561190a576040517fb3512b0c00000000000000000000000000000000000000000000000000000000815260040160405180910390fd5b5f60208284031215611edb575f5ffd5b5035919050565b803573ffffffffffffffffffffffffffffffffffffffff81168114611f05575f5ffd5b919050565b5f5f60408385031215611f1b575f5ffd5b611f2483611ee2565b946020939093013593505050565b5f60208284031215611f42575f5ffd5b611f4b82611ee2565b9392505050565b5f81518084528060208401602086015e5f6020828601015260207fffffffffffffffffffffffffffffffffffffffffffffffffffffffffffffffe0601f83011685010191505092915050565b602081525f611f4b6020830184611f52565b606081525f611fc26060830186611f52565b8281036020840152611fd48186611f52565b90508281036040840152611fe88185611f52565b9695505050505050565b7fff000000000000000000000000000000000000000000000000000000000000008816815260e060208201525f61202c60e0830189611f52565b828103604084015261203e8189611f52565b6060840188905273ffffffffffffffffffffffffffffffffffffffff8716608085015260a0840186905283810360c0850152845180825260208087019350909101905f5b818110156120a0578351835260209384019390920191600101612082565b50909b9a5050505050505050505050565b7f4e487b71000000000000000000000000000000000000000000000000000000005f52604160045260245ffd5b5f82601f8301126120ed575f5ffd5b813567ffffffffffffffff811115612107576121076120b1565b604051601f82017fffffffffffffffffffffffffffffffffffffffffffffffffffffffffffffffe0908116603f0116810167ffffffffffffffff81118282101715612154576121546120b1565b60405281815283820160200185101561216b575f5ffd5b816020850160208301375f918101602001919091529392505050565b5f60208284031215612197575f5ffd5b813567ffffffffffffffff8111156121ad575f5ffd5b6121b9848285016120de565b949350505050565b604081525f6121d36040830185611f52565b82810360208401526121e58185611f52565b95945050505050565b5f5f604083850312156121ff575f5ffd5b823567ffffffffffffffff811115612215575f5ffd5b830160808186031215612226575f5ffd5b9150602083013567ffffffffffffffff811115612241575f5ffd5b830160a08186031215612252575f5ffd5b809150509250929050565b803561ffff81168114611f05575f5ffd5b5f6080828403121561227e575f5ffd5b6040516080810167ffffffffffffffff811182821017156122a1576122a16120b1565b6040529050806122b083611ee2565b81526122be6020840161225d565b6020820152604083013567ffffffffffffffff8111156122dc575f5ffd5b6122e8858286016120de565b604083015250606083013567ffffffffffffffff811115612307575f5ffd5b612313858286016120de565b6060830152505092915050565b5f60208284031215612330575f5ffd5b813567ffffffffffffffff811115612346575f5ffd5b6121b98482850161226e565b5f5f60408385031215612363575f5ffd5b50508035926020909101359150565b604080825283519082018190525f9060208501906060840190835b818110156123c157835173ffffffffffffffffffffffffffffffffffffffff1683526020938401939092019160010161238d565b50508381036020850152809150845180825260208201925060208160051b830101602087015f5b83811015612438577fffffffffffffffffffffffffffffffffffffffffffffffffffffffffffffffe0858403018652612422838351611f52565b60209687019690935091909101906001016123e8565b509098975050505050505050565b5f5f60208385031215612457575f5ffd5b823567ffffffffffffffff81111561246d575f5ffd5b8301601f8101851361247d575f5ffd5b803567ffffffffffffffff811115612493575f5ffd5b8560208260051b84010111156124a7575f5ffd5b6020919091019590945092505050565b5f5f5f5f5f60a086880312156124cb575f5ffd5b853567ffffffffffffffff8111156124e1575f5ffd5b6124ed888289016120de565b955050602086013567ffffffffffffffff811115612509575f5ffd5b612515888289016120de565b945050604086013567ffffffffffffffff811115612531575f5ffd5b61253d888289016120de565b93505060608601359150608086013567ffffffffffffffff811115612560575f5ffd5b61256c888289016120de565b9150509295509295909350565b600181811c9082168061258d57607f821691505b6020821081036125c4577f4e487b71000000000000000000000000000000000000000000000000000000005f52602260045260245ffd5b50919050565b5f82518060208501845e5f920191825250919050565b5f61190a368361226e565b7f4e487b71000000000000000000000000000000000000000000000000000000005f52601160045260245ffd5b808202811582820484141761190a5761190a6125eb565b5f82612662577f4e487b71000000000000000000000000000000000000000000000000000000005f52601260045260245ffd5b500490565b5f5f83357fffffffffffffffffffffffffffffffffffffffffffffffffffffffffffffffe184360301811261269a575f5ffd5b83018035915067ffffffffffffffff8211156126b4575f5ffd5b6020019150368190038213156111b7575f5ffd5b81835281816020850137505f602082840101525f60207fffffffffffffffffffffffffffffffffffffffffffffffffffffffffffffffe0601f840116840101905092915050565b73ffffffffffffffffffffffffffffffffffffffff8916815273ffffffffffffffffffffffffffffffffffffffff881660208201528660408201528560608201528460808201528360a082015260e060c08201525f61277260e0830184866126c8565b9a9950505050505050505050565b5f60208284031215612790575f5ffd5b81518015158114611f4b575f5ffd5b8181038181111561190a5761190a6125eb565b5f602082840312156127c2575f5ffd5b611f4b8261225d565b606081525f6127de6060830187896126c8565b85602084015282810360408401526127f78185876126c8565b98975050505050505050565b73ffffffffffffffffffffffffffffffffffffffff8516815261ffff84166020820152608060408201525f61283b6080830185611f52565b828103606084015261284d8185611f52565b979650505050505050565b8082018082111561190a5761190a6125eb565b7f4e487b71000000000000000000000000000000000000000000000000000000005f52603260045260245ffd5b5f5f83546128a581612579565b6001821680156128bc57600181146128ef5761291c565b7fffffffffffffffffffffffffffffffffffffffffffffffffffffffffffffff008316865281151582028601935061291c565b865f5260205f205f5b83811015612914578154888201526001909101906020016128f8565b505081860193505b509195945050505050565b5f82357fffffffffffffffffffffffffffffffffffffffffffffffffffffffffffffff21833603018112612959575f5ffd5b9190910192915050565b601f8211156112c657805f5260205f20601f840160051c810160208510156129885750805b601f840160051c820191505b818110156129a7575f8155600101612994565b5050505050565b815167ffffffffffffffff8111156129c8576129c86120b1565b6129dc816129d68454612579565b84612963565b6020601f821160018114612a2d575f83156129f75750848201515b7fffffffffffffffffffffffffffffffffffffffffffffffffffffffffffffffff600385901b1c1916600184901b1784556129a7565b5f848152602081207fffffffffffffffffffffffffffffffffffffffffffffffffffffffffffffffe08516915b82811015612a7a5787850151825560209485019460019092019101612a5a565b5084821015612ab657868401517fffffffffffffffffffffffffffffffffffffffffffffffffffffffffffffffff600387901b60f8161c191681555b50505050600190811b01905550565b7f4e487b71000000000000000000000000000000000000000000000000000000005f52602160045260245ffdfea26469706673582212201fae690885a32845c9ff1bc9adf79225dafee28b8eb380cbd82827535c40103664736f6c634300081c0033","linkReferences":{}},"methodIdentifiers":{"FEE_DENOMINATOR()":"d73792a9","TYPEHASH()":"3b639e6f","USDC()":"89a30271","authorizedKeys(address)":"3a0daf37","authorizers(uint256)":"11f6649b","donate((address,uint16,bytes,bytes),(address,uint256,uint256,uint256,bytes))":"94575c86","eip712Domain()":"84b0196e","feeCollector()":"c415b95c","feePercent()":"7fd6f15c","getAuthorizers(uint256,uint256)":"dc7becbc","getAuthorizersCount()":"6f1dd26c","getProfile(bytes)":"8ea651a7","getProfileByAddress(address)":"4cd6959c","hashDonation((address,uint16,bytes,bytes))":"a4353403","keys(bytes)":"8d8cd6be","multipleTransferAuthorized((address,address,uint256,uint256,uint256,bytes32,bytes)[])":"dd1c9d4c","nonceUsed(address,uint256)":"1647795e","owner()":"8da5cb5b","profiles(bytes)":"961f0a2e","renounceOwnership()":"715018a6","transferOwnership(address)":"f2fde38b","updateFeeCollector(address)":"d2c35ce8","updateFeePercent(uint256)":"f05c5fed","updateProfile(bytes,bytes,bytes,uint256,bytes)":"fb088964"},"id":35}